:100000000C9434000C9451000C9451000C94510049
:100010000C9453000C9451000C9451000C9451001A
:100020000C9451000C9451000C9451000C9451000C
:100030000C9451000C9451000C9451000C945100FC
:100040000C9451000C9451000C9451000C945100EC
:100050000C9451000C9451000C9451000C945100DC
:100060000C9451000C94510011241FBECFEFD8E026
:10007000DEBFCDBF12E0A0E0B1E0E4E5F9E302C0ED
:1000800005900D92A23BB107D9F712E0A2EBB2E0C6
:1000900001C01D92A83EB107E1F70E948F0C0C949D
:1000A000A81C0C9400001F920F920FB60F921124FF
:1000B0004F925F926F927F928F929F92AF92BF9278
:1000C000CF92DF92EF92FF920F931F932F933F9364
:1000D0004F935F936F937F938F939F93AF93BF9350
:1000E000EF93FF9326B130E0A90141705070C90130
:1000F0009595879595958795817090709093A701B8
:100100008093A6017091BC02E091BD02F091BE0205
:10011000D090BF02C090C002B090C102A090C202B5
:100120006091C3027093C402E093C502F093C602CB
:10013000D092C702C092C802B092C902A092CA026D
:100140006093CB023595279520FFB4C0413051050F
:1001500009F010C28091CC029091CD0284309105BB
:10016000E1F5B72FBF5F81E0B71708F080E0A82F57
:10017000AE0F81E0AE1708F080E0582F5F0F81E0EE
:100180005F1708F080E0482F4D0D81E04D1508F015
:1001900080E0382F3C0D81E03C1508F080E0282FEE
:1001A0002B0D81E02B1508F080E0982F9A0D81E04F
:1001B0009A1508F080E0860FB093BC02A093BD02B0
:1001C0005093BE024093BF023093C0022093C102FD
:1001D0009093C2028093C3026AC0029709F067C07D
:1001E000072F015091E0071708F090E08E2F815003
:1001F00021E08E1708F020E0192F180F91E0181752
:1002000008F090E0292B8F2F815031E08F1708F0F4
:1002100030E0B22FB80F91E0B81708F090E0392B1A
:100220008D2D815021E08D1508F020E0A32FA80F1F
:1002300091E0A81708F090E0292B8C2D815031E037
:100240008C1508F030E0522F580F91E0581708F045
:1002500090E0392B8B2D815021E08B1508F020E0A8
:10026000432F480F91E0481708F090E0292B8A2D82
:10027000815091E08A1508F090E0322F380F21E08C
:10028000381708F020E0922B6150960F6F5F0093B3
:10029000BC021093BD02B093BE02A093BF02509364
:1002A000C0024093C1023093C2029093C30281E026
:1002B00090E012C28091CC029091CD024130510564
:1002C00009F0ACC081309105E1F5B72FBF5F81E047
:1002D000B71708F080E0A82FAE0F81E0AE1708F046
:1002E00080E0582F5F0F81E05F1708F080E0482F13
:1002F0004D0D81E04D1508F080E0382F3C0D81E078
:100300003C1508F080E0282F2B0D81E02B1508F01C
:1003100080E0982F9A0D81E09A1508F080E0860F12
:10032000B093BC02A093BD025093BE024093BF02A3
:100330003093C0022093C1029093C2028093C30203
:100340006AC0039709F067C0072F015091E00717B3
:1003500008F090E08E2F815021E08E1708F020E009
:10036000192F180F91E0181708F090E0292B8F2F04
:10037000815031E08F1708F030E0B22FB80F91E0D4
:10038000B81708F090E0392B8D2D815021E08D15A4
:1003900008F020E0A32FA80F91E0A81708F090E044
:1003A000292B8C2D815031E08C1508F030E0522F34
:1003B000580F91E0581708F090E0392B8B2D8150A1
:1003C00021E08B1508F020E0432F480F91E04817FB
:1003D00008F090E0292B8A2D815091E08A1508F0D1
:1003E00090E0322F380F21E0381708F020E0922BF0
:1003F0006150960F6F5F0093BC021093BD02B093E3
:10040000BE02A093BF025093C0024093C10230933A
:10041000C2029093C30282E090E05EC182309105F7
:10042000E1F5B72FBF5F81E0B71708F080E0A82F94
:10043000AE0F81E0AE1708F080E0582F5F0F81E02B
:100440005F1708F080E0482F4D0D81E04D1508F052
:1004500080E0382F3C0D81E03C1508F080E0282F2B
:100460002B0D81E02B1508F080E0982F9A0D81E08C
:100470009A1508F080E0860FB093BC02A093BD02ED
:100480005093BE024093BF023093C0022093C1023A
:100490009093C2028093C3026AC0049709F067C0B8
:1004A000072F015091E0071708F090E08E2F815040
:1004B00021E08E1708F020E0192F180F91E018178F
:1004C00008F090E0292B8F2F815031E08F1708F032
:1004D00030E0B22FB80F91E0B81708F090E0392B58
:1004E0008D2D815021E08D1508F020E0A32FA80F5D
:1004F00091E0A81708F090E0292B8C2D815031E075
:100500008C1508F030E0522F580F91E0581708F082
:1005100090E0392B8B2D815021E08B1508F020E0E5
:10052000432F480F91E0481708F090E0292B8A2DBF
:10053000815091E08A1508F090E0322F380F21E0C9
:10054000381708F020E0922B6150960F6F5F0093F0
:10055000BC021093BD02B093BE02A093BF025093A1
:10056000C0024093C1023093C2029093C30283E061
:1005700090E0B2C0452B09F0B3C08091CC029091BD
:10058000CD0283309105E1F5B72FBF5F81E0B7174A
:1005900008F080E0A82FAE0F81E0AE1708F080E0F1
:1005A000582F5F0F81E05F1708F080E0482F4D0D56
:1005B00081E04D1508F080E0382F3C0D81E03C15BE
:1005C00008F080E0282F2B0D81E02B1508F080E04B
:1005D000982F9A0D81E09A1508F080E0860FB0936D
:1005E000BC02A093BD025093BE024093BF02309361
:1005F000C0022093C1029093C2028093C3026AC0DA
:10060000019709F067C0072F015091E0071708F024
:1006100090E08E2F815021E08E1708F020E0192FF6
:10062000180F91E0181708F090E0292B8F2F8150B8
:1006300031E08F1708F030E0B22FB80F91E0B81713
:1006400008F090E0392B8D2D815021E08D1508F0B8
:1006500020E0A32FA80F91E0A81708F090E0292B25
:100660008C2D815031E08C1508F030E0522F580F5E
:1006700091E0581708F090E0392B8B2D815021E044
:100680008B1508F020E0432F480F91E0481708F041
:1006900090E0292B8A2D815091E08A1508F090E096
:1006A000322F380F21E0381708F020E0922B6150EC
:1006B000960F6F5F0093BC021093BD02B093BE0211
:1006C000A093BF025093C0024093C1023093C20274
:1006D0009093C30284E090E09093CD028093CC028B
:1006E0001A99E2C081E090E09093CF028093CE020D
:1006F0008091BC023091BD024091BE021091BF02B8
:10070000F090C002E090C1028090C2024090C3020B
:100710005091D8022091D902B091DA020091DB0207
:100720009090DC027090DD026090DE025090DF025B
:10073000580F91E0581708F090E0832F820F21E0C6
:10074000831708F020E0A92FA80F91E0A81708F060
:1007500090E0292B842F8B0F31E0841708F030E0D4
:10076000B22FB80F91E0B81708F090E0392B812F25
:10077000800F21E0811708F020E0132F180F91E07F
:10078000181708F090E0292B8F2D890D31E08F1577
:1007900008F030E0022F080F91E0081708F090E011
:1007A000392B8E2D870D21E08E1508F020E0F32ED9
:1007B000F80E91E0F81608F090E0292B882D860DB0
:1007C00091E0881508F090E0E22EE80E21E0E816AE
:1007D00008F020E0922B442D450D490F952E971AD5
:1007E00091E0591508F090E08A2F8E1B21E0A817A0
:1007F00008F020E0A82FA91B91E08A1708F090E0EC
:10080000292B8B2F8F1B31E0B81708F030E0F82F21
:10081000F21B91E08F1708F090E0392B812F8D1992
:1008200021E0181708F020E0E82FE31B91E08E1775
:1008300008F090E0292B802F8C1931E0081708F080
:1008400030E0782F721B91E0871708F090E0392B89
:100850008F2D8B1921E0F81608F020E0582F531B3C
:1008600091E0851708F090E0292B8E2D8A1991E0F0
:10087000E81608F090E0382F321B21E0831708F0CB
:1008800020E0922B461B491B9092D002A093D102EC
:10089000F093D202E093D3027093D4025093D50226
:1008A0003093D6024093D702D090D002C090D102AC
:1008B000B090D202A090D3029090D4028090D50242
:1008C0007090D6026090D7028091BC023091BD0238
:1008D0004091BE025091BF026091C0027091C1026E
:1008E000E091C2025090C302E82EED1891E08E15FF
:1008F00008F090E0832F8C1921E0381708F020E0F1
:10090000F82EF91A91E08F1508F090E0292B842F2A
:100910008B1931E0481708F030E0182F121B91E0D6
:10092000811708F090E0392B852F8A1921E058179C
:1009300008F020E0082F031B91E0801708F090E0FA
:10094000292B862F891931E0681708F030E0B82F7D
:10095000B21B91E08B1708F090E0392B872F881994
:1009600021E0781708F020E0A82FA31B91E08A1758
:1009700008F090E0292B8E2F871991E0E81708F0F6
:1009800090E0F82FF21B21E08F1708F020E0922B67
:10099000E52DE619E91B9701412F502F6B2F7A2F78
:1009A0008F2F9E2F52F52E2D2D5F81E02E1508F0F2
:1009B00080E0382F3F0D81E03F1508F080E0482FA0
:1009C000410F81E0411708F080E0582F500F81E07F
:1009D000501708F080E0682F6B0F81E06B1708F06C
:1009E00080E0782F7A0F81E07A1708F080E08F0F8F
:1009F00091E08F1708F090E09E0F02E00E94940CA7
:100A00002093B4023093B5024093B6025093B702DC
:100A10006093B8027093B9028093BA029093BB02BC
:100A20002D2D3C2D4B2D5A2D692D782D872D962D52
:100A300067FE2AC02D2D2D5F81E02D1508F080E086
:100A4000382F3C0D81E03C1508F080E0482F4B0D1D
:100A500081E04B1508F080E0582F5A0D81E05A15BF
:100A600008F080E0682F690D81E0691508F080E0EA
:100A7000782F780D81E0781508F080E0870D91E0FF
:100A8000871508F090E0960D02E00E94940C2093E8
:100A9000D8023093D9024093DA025093DB0260937C
:100AA000DC027093DD028093DE029093DF02FF91FF
:100AB000EF91BF91AF919F918F917F916F915F91D6
:100AC0004F913F912F911F910F91FF90EF90DF90E9
:100AD000CF90BF90AF909F908F907F906F905F90DE
:100AE0004F900F900FBE0F901F9018958BB94398A1
:100AF0004498459A80EA9FE00197F1F74598089558
:100B00008BB9439A4498459A80EA9FE00197F1F7A0
:100B1000459808950F931F93459882EC91E020E942
:100B200031E0F9013197F1F70197D9F780E30E949D
:100B300076058AE18A95F1F780E30E94760500E860
:100B400012E0C8010197F1F780E30E947605C80121
:100B50000197F1F788E30E94760580E10E9476050F
:100B60008CE00E94760586E00E9476051F910F9129
:100B700008952F923F924F925F926F927F928F9241
:100B80009F92AF92BF92CF92DF92EF92FF920F931C
:100B90001F934091B2025091B302019709F0A6C190
:100BA0002091A4013091A501452B09F0C7C02998D7
:100BB000289AB901882777FD8095982F0E9462199D
:100BC0001B012C012BEA3AEA4AEA50E40E942C1756
:100BD0003B014C0120E030E040E85FE30E94321925
:100BE000882314F461E054C0C401B30120E030E074
:100BF0004FE753E40E94D21818160CF045C0C2010A
:100C0000B10120E030E04AE754E40E9426185B017D
:100C10006C0120E030E04AE755E40E942C177B018C
:100C20008C0120E030E040E85FE30E943219882325
:100C30001CF461E070E024C0C801B70120E03FEF80
:100C40004FE757E40E94D2181816B4F4C601B50154
:100C500020E030E040E251E40E942C170E94190D80
:100C600080E991E005C0FC013197F1F761507040D7
:100C700061157105C1F70EC0C801B7010E94190DB9
:100C8000CB010197F1F706C0C401B3010E94190D11
:100C90006A95F1F72898299AC401B30120E030E061
:100CA00040E85FE30E94321988230CF4C6C0C401F7
:100CB000B30120E030E04FE753E40E94D218181649
:100CC0000CF00DC1C201B10120E030E04AE754E46C
:100CD0000E9426185B016C0120E030E04AE755E4F1
:100CE0000E942C177B018C0120E030E040E85FE39C
:100CF0000E94321988230CF4C7C0C801B70120E054
:100D00003FEF4FE757E40E94D21818160CF0DFC0EF
:100D1000C601B50120E030E040E251E40E942C170A
:100D20000E94190D80E991E005C0FC013197F1F7AF
:100D30006150704061157105C1F7D4C12898299A96
:100D4000B901882777FD8095982F0E9462191B01B1
:100D50002C012BEA3AEA4AEA50E40E942C173B01A4
:100D60004C0120E030E040E85FE30E943219882324
:100D700014F461E054C0C401B30120E030E04FE757
:100D800053E40E94D21818160CF045C0C201B101FC
:100D900020E030E04AE754E40E9426185B016C0131
:100DA00020E030E04AE755E40E942C177B018C01DB
:100DB00020E030E040E85FE30E94321988231CF411
:100DC00061E070E024C0C801B70120E03FEF4FE7C9
:100DD00057E40E94D2181816B4F4C601B50120E0F9
:100DE00030E040E251E40E942C170E94190D80E986
:100DF00091E005C0FC013197F1F761507040611539
:100E00007105C1F70EC0C801B7010E94190DCB01D1
:100E10000197F1F706C0C401B3010E94190D6A954C
:100E2000F1F72998289AC401B30120E030E040E8A6
:100E30005FE30E943219882314F461E054C0C401B6
:100E4000B30120E030E04FE753E40E94D2181816B7
:100E50000CF045C0C201B10120E030E04AE754E4A3
:100E60000E9426185B016C0120E030E04AE755E45F
:100E70000E942C177B018C0120E030E040E85FE30A
:100E80000E94321988231CF461E070E024C0C8017C
:100E9000B70120E03FEF4FE757E40E94D218181641
:100EA000B4F4C601B50120E030E040E251E40E9414
:100EB0002C170E94190D80E991E005C0FC013197C3
:100EC000F1F76150704061157105C1F70BC1C801A0
:100ED000B7010E94190DCB010197F1F703C1C401BD
:100EE000B3010E94190D6A95F1F7FCC02091A4018D
:100EF0003091A501452B09F07CC02998289A220F32
:100F0000331FB901882777FD8095982F0E946219B9
:100F10005B016C012BEA3AEA4AEA50E40E942C1782
:100F20007B018C0120E030E040E85FE30E94321951
:100F3000882314F461E054C0C801B70120E030E018
:100F40004FE753E40E94D21818160CF045C0C601B2
:100F5000B50120E030E04AE754E40E9426185B0126
:100F60006C0120E030E04AE755E40E942C177B0139
:100F70008C0120E030E040E85FE30E9432198823D2
:100F80001CF461E070E024C0C801B70120E03FEF2D
:100F90004FE757E40E94D2181816B4F4C601B50101
:100FA00020E030E040E251E40E942C170E94190D2D
:100FB00080E991E005C0FC013197F1F76150704084
:100FC00061157105C1F70EC0C801B7010E94190D66
:100FD000CB010197F1F706C0C801B7010E94190DB6
:100FE0006A95F1F781E090E09093B3028093B202AA
:100FF00079C02898299A220F331FB901882777FDD5
:101000008095982F0E9462195B016C012BEA3AEAE5
:101010004AEA50E40E942C177B018C0120E030E06A
:1010200040E85FE30E943219882314F461E054C061
:10103000C801B70120E030E04FE753E40E94D21826
:1010400018160CF045C0C601B50120E030E04AE7B3
:1010500054E40E9426185B016C0120E030E04AE76E
:1010600055E40E942C177B018C0120E030E040E821
:101070005FE30E94321988231CF461E070E024C011
:10108000C801B70120E03FEF4FE757E40E94D218B4
:101090001816B4F4C601B50120E030E040E251E496
:1010A0000E942C170E94190D80E991E005C0FC01F7
:1010B0003197F1F76150704061157105C1F70EC0AD
:1010C000C801B7010E94190DCB010197F1F706C0C5
:1010D000C801B7010E94190D6A95F1F71092B30289
:1010E0001092B2021F910F91FF90EF90DF90CF907E
:1010F000BF90AF909F908F907F906F905F904F9038
:101100003F902F90089585B18C7D85B908950F93F8
:101110001F93CF93DF93C0EED2E000E010E0888110
:1011200080FD05C080E090E00E94B90506C081E026
:1011300090E00E94B9050F5F1F4F1992199282E04B
:10114000C83ED80761F700FD03C081E090E002C00F
:1011500080E090E00E94B905DF91CF911F910F913F
:101160000895863309F4A7C0873394F4823309F4D1
:101170004CC0833334F4803369F1813309F0D3C137
:1011800032C0843309F47CC085330CF082C053C074
:10119000893309F4E4C08A333CF4873309F4AAC0E4
:1011A000883309F0C0C1D2C08C3309F41FC18D331C
:1011B0003CF48A3309F4E5C08B3309F0B4C1F7C0BD
:1011C0008E3309F448C18E330CF433C18F3309F0E8
:1011D000AAC171C180E090E00E94B90580E090E072
:1011E0000E94B90542C081E090E00E94B90580915B
:1011F000E0029091E10201969093E1028093E00277
:1012000080E090E00E94B90511C080E090E00E946B
:10121000B90581E090E00E94B9058091E2029091C9
:10122000E30201969093E3028093E20280E090E073
:101230000E94B90586C081E090E00E94B9058091C6
:10124000E0029091E10201969093E1028093E00226
:1012500081E090E00E94B9058091E2029091E30262
:1012600001969093E3028093E20280E090E00E9476
:10127000B90580E090E00E94B90581E090E018C1D6
:1012800080E090E00E94B90580E090E00E94B905FE
:101290004BC081E090E00E94B9058091E0029091FE
:1012A000E10201969093E1028093E00280E090E0F9
:1012B0000E94B90511C080E090E00E94B90581E06C
:1012C00090E00E94B9058091E2029091E3020196BC
:1012D0009093E3028093E20281E090E00E94B905DE
:1012E0008091E4029091E50201969093E50280934B
:1012F000E402BFCF81E090E00E94B9058091E00256
:101300009091E10201969093E1028093E00281E0E6
:1013100090E00E94B9058091E2029091E30201966B
:101320009093E3028093E20281E090E00E94B9058D
:101330008091E4029091E50201969093E5028093FA
:10134000E40280E090E00E94B905B0C080E090E047
:101350000E94B90580E090E00E94B90542C081E09A
:1013600090E00E94B9058091E0029091E10201961F
:101370009093E1028093E00280E090E00E94B90542
:1013800011C080E090E00E94B90581E090E00E94E9
:10139000B9058091E2029091E30201969093E302F5
:1013A0008093E20280E090E00E94B90534C081E0C1
:1013B00090E00E94B9058091E0029091E1020196CF
:1013C0009093E1028093E00281E090E00E94B905F1
:1013D0008091E2029091E30201969093E302809360
:1013E000E20280E090E00E94B90553C080E090E006
:1013F0000E94B90580E090E00E94B90581E090E08C
:101400000E94B9058091E4029091E50201969093C3
:10141000E5028093E40281E090E00E94B9058091AA
:10142000E6029091E70201969093E7028093E6022C
:1014300024CF81E090E00E94B9058091E002909174
:10144000E10201969093E1028093E00280E090E057
:101450000E94B90511C080E090E00E94B90581E0CA
:1014600090E00E94B9058091E2029091E30201961A
:101470009093E3028093E20281E090E00E94B9053C
:101480008091E4029091E50201969093E5028093A9
:10149000E40281E090E00E94B9058091E60290911B
:1014A000E70201969093E7028093E60280E090E0E5
:1014B0000E94B905089581E090E00E94B9058091ED
:1014C000E0029091E10201969093E1028093E002A4
:1014D00081E090E00E94B9058091E2029091E302E0
:1014E00001969093E3028093E20281E090E00E94F3
:1014F000B9058091E4029091E50201969093E5028E
:101500008093E40281E090E00E94B9058091E602B8
:101510009091E70201969093E7028093E60281E0C2
:1015200090E00E94B90508958BE384B98FEF8AB9E2
:1015300088E387B92D98ECE6F0E0808187608083AE
:10154000E8E6F0E080818260808378940E948A05DA
:1015500008956AE070E00E94091C805D08952F9252
:101560003F924F925F926F927F928F929F92AF9233
:10157000BF92CF92DF92EF92FF920F931F93DF9370
:10158000CF93CDB7DEB7C654D0400FB6F894DEBFC8
:101590000FBECDBFDE01119682E4FD0111928A9546
:1015A000E9F721E030E03E832D8380E091E09C83E9
:1015B0008B8386E091E09A8389833C872B878EE03A
:1015C00091E09A87898787E191E098878F833A8BAA
:1015D000298B8FE191E0988B8F8786E291E09E873F
:1015E0008D87388F2F8B8EE291E09E8B8D8B81E3E0
:1015F00091E09C8B8B8B3E8F2D8F89E391E09C8FAC
:101600008B8F80E491E09A8F898F3CA32BA388E491
:1016100091E09AA389A38FE491E098A38F8F3AA7D2
:1016200029A787E591E098A78FA380E691E09EA384
:101630008DA338AB2FA788E691E09EA78DA78EE6F5
:1016400091E09CA78BA73EAB2DAB86E791E09CABCE
:101650008BAB8DE791E09AAB89AB3CAF2BAF85E8C4
:1016600091E09AAF89AF8BE891E098AF8FAB83E0C0
:1016700090E0FE01EF5BFF4F91838083FE01FF96B8
:1016800083E991E09183808386E991E09EAF8DAFFD
:1016900027963FAF2EAF27972091B4023091B50225
:1016A0004091B6025091B7026091B8027091B902B0
:1016B0008091BA029091BB021916F4F0992371F44B
:1016C0008823D1F47723C1F46623B1F45523A1F420
:1016D000442391F4332381F4222371F4FBE0AF2EF1
:1016E000BB24CC24DD24EE24FF2400E010E00E9483
:1016F000450DC9010A960CC0EBE0AE2EBB24CC24EC
:10170000DD24EE24FF2400E010E00E94450DC90115
:10171000FC01EE0FFF1FE80FF91FDF01AA0FBB1F2F
:1017200081E090E08C0F9D1FA80FB91F14968D913A
:101730009C91159725969FAF8EAF2597AD90BC9045
:101740003196EE0FFF1FA1E0B0E0AC0FBD1FEA0F16
:10175000FB1FC080D18081E00E94760580EF9AE077
:101760000197F1F7D6010D900020E9F77D0108946B
:10177000E108F108EC18FD0800E010E00E151F0567
:1017800014F080E204C0F601E00FF11F80810E9496
:1017900080050F5F1F4F0830110581F780EC0E9414
:1017A000760580EF9AE00197F1F7D5010D900020C2
:1017B000E9F77D010894E108F108EA18FB0800E068
:1017C00010E00E151F0514F080E204C0F501E00FD3
:1017D000F11F80810E9480050F5F1F4F08301105A7
:1017E00081F783B1E82EFF24F594E794F594E7940C
:1017F000B1E0EB22FF24F092A901E092A801E1E020
:10180000EE16F10401F527968EAD9FAD2797892B33
:10181000D1F48091CE029091CF020197A1F4109261
:10182000CF021092CE021092D8021092D9021092DA
:10183000DA021092DB021092DC021092DD021092AA
:10184000DE021092DF028091A6019091A701892B00
:1018500019F088EE93E058C081E00E9476052D9A39
:1018600000E010E080E090E00E94B9050F5F1F4F9C
:101870000A311105B9F780919E010E94B10880914B
:101880009F010E94B1088091A0010E94B10880913F
:10189000A1010E94B10800E010E0F501E00FF11F86
:1018A00080810E94B1080F5F1F4F07301105A9F713
:1018B00025968EAD9FAD25976AE070E00E941D1CB5
:1018C000805D0E94B1088091A2010E94B1088091C0
:1018D000A3010E94B1080E94870800E010E080E0A8
:1018E00090E00E94B9050F5F1F4F04311105B9F751
:1018F00085B18C7D85B988E893E1E0E9F1E0319725
:10190000F1F70197D1F7A5CFE0E9F1E03197F1F7D1
:101910000197D1F72796FFAEEEAE2797BDCE0E9476
:10192000940A0E94AF0AFDCFEF92FF920F93DF93CC
:10193000CF93CDB7DEB760970FB6F894DEBF0FBE7A
:10194000CDBFA82F002309F467C07E010894E11CD5
:10195000F11C88E0F70111928A95E9F729833A830F
:101960004B835C836D837E83AF83988780E2801B8B
:101970004D815E816F817885E82FFF27E7FDF09527
:101980001816B4F0DB01CA01BB0F880B982FDC01DD
:101990008D879E87AF87B88B882799278E1B9F0BD3
:1019A00004C075956795579547958A95D2F728C0D5
:1019B000202F332727FD3095DB01CA01022E04C0FA
:1019C000B595A795979587950A94D2F78D879E87A9
:1019D000AF87B88B04C0440F551F661F771FEA9569
:1019E000D2F789819A81AB81BC8104C0B695A79555
:1019F000979587952A95D2F7482B592B6A2B7B2BE5
:101A000049875A876B877C8729853A854B855C8512
:101A10006D857E85AF8598898A2F60960FB6F8947C
:101A2000DEBF0FBECDBFCF91DF910F91FF90EF9042
:101A30000895EF92FF920F931F937B018C0120E09A
:101A400030E040E05FE40E94021988238CF0C80176
:101A5000B70120E030E040E05FE40E94CE160E9433
:101A6000C0199B01AC01205030404040504806C096
:101A7000C801B7010E94C0199B01AC01B901CA019C
:101A80001F910F91FF90EF900895A7E7B0E0EBE46E
:101A9000FDE00C94711C982E892E712E88E0FE01B9
:101AA0003196DF01682E1D926A94E9F729833A8303
:101AB0004B835C836D837E839F829887FE0139967A
:101AC000DF011D928A95E9F7A986BA86CB86DC8666
:101AD000ED86FE860F87188B8D819E81AF81B8853C
:101AE000B7FD07C0E1961CAE1DAE1EAE1FAEE1975E
:101AF00064C0219581E0121608F080E0319591E0F4
:101B0000131608F090E0B32FB81B81E03B1708F0E4
:101B100080E0982B419531E0141608F030E0A42FB6
:101B2000A91B81E04A1708F080E0382B519591E01D
:101B3000151608F090E0F52FF31B81E05F1708F011
:101B400080E0982B619531E0161608F030E0E62F22
:101B5000E91B81E06E1708F080E0382B719541E0B9
:101B6000171608F040E0572F531B81E0751708F057
:101B700080E0482B892D819591E0181608F090E0BF
:101B8000682E641A462D31E0861508F030E0932B5C
:101B9000882D8195891B2983BA83AB83FC83ED83D0
:101BA0005E834F8388872FEF3FEF4FEF5FEFE19624
:101BB0002CAF3DAF4EAF5FAFE1978D859E85AF8572
:101BC000B889B7FF5AC0A19481E01A1408F080E0E8
:101BD000B19491E01B1408F090E06B2D681B81E03C
:101BE000B61608F080E0982BC19421E01C1408F090
:101BF00020E05C2D591B81E0C51608F080E0282B01
:101C0000D19491E01D1408F090E04D2D421B81E02D
:101C1000D41608F080E0982BE19421E01E1408F01F
:101C200020E03E2D391B81E0E31608F080E0282BF0
:101C3000F19491E01F1408F090E07F2D721B272F84
:101C400081E0F71608F080E0982B019511E010165E
:101C500008F010E0802F891B982F81E0091708F009
:101C600080E0182B872D8195811BA9866A875B8769
:101C70004C873D872E879F87888B99812A813B815E
:101C80004C815D816E817F81A885B9851A850B8520
:101C9000FC84ED84DE84CF84B88888E0E9E18E2E70
:101CA000912C8C0E9D1EF401682E11926A94E9F716
:101CB000998F2A8F3B8F4C8F5D8F6E8F7F8FA8A35C
:101CC0009E012F5D3F4FF90111928A95E9F7B9A363
:101CD0001AA30BA3FCA2EDA2DEA2CFA2B8A629A054
:101CE0003AA04BA05CA0ADA0BEA0CFA0D8A4498DC7
:101CF0005A8D6B8D7C8DE5964FAFE597E6965FAF7D
:101D0000E697E7966FAFE797E8967FAFE897E89694
:101D10006CAC7DAC8EAC9FACE8972D966CAE7DAE76
:101D20008EAE9FAE2D978D8D9E8D2F8D38A13C014F
:101D3000490161966CAE7DAE8EAE9FAE6197A114E7
:101D4000B104C104D10409F028C3621473048404EB
:101D5000950408F00EC100E0201600E0300601E016
:101D6000400600E0500688F41FEF211631044104BC
:101D7000510439F030F088E0E82EF12C012D112DBE
:101D800018C0EE24FF24870114C020E0221620E0B2
:101D9000320620E0420621E0520630F0B8E1EB2E98
:101DA000F12C012D112D05C0A0E1EA2EF12C012D01
:101DB000112DD201C1010E2C04C0B695A79597959F
:101DC00087950A94D2F78E549E4FDC012C9180E2C5
:101DD00090E0A0E0B0E08E199F09A00BB10B5C0170
:101DE0006D01A21AB108C108D1086596ACAEBDAEAE
:101DF000CEAEDFAE6597A114B104C104D10409F4DD
:101E000045C062966FAD6297062E04C0220C331C4B
:101E1000441C551C0A94D2F7A4019301062E04C059
:101E2000220F331F441F551F0A94D2F780E290E01F
:101E30008A199B09E896CCACDDACEEACFFACE89718
:101E400004C0F694E794D794C7948A95D2F7870193
:101E50007601E22AF32A042B152B6196ECAEFDAE37
:101E60000EAF1FAF6197E8960CAD1DAD2EAD3FAD27
:101E7000E89704C0000F111F221F331F6A95D2F785
:101E80002D960CAF1DAF2EAF3FAF2D97320188249A
:101E90009924A20191014070507069962CAF3DAF1A
:101EA0004EAF5FAF699761966CAD7DAD8EAD9FAD66
:101EB0006197A40193010E944F1C7B018C016196E4
:101EC0006CAD7DAD8EAD9FAD6197A40193010E9475
:101ED0004F1CCA01B90169962CAD3DAD4EAD5FAD49
:101EE00069970E94301C9B01AC018701FF24EE24FE
:101EF0002D96ACACBDACCEACDFAC2D97C601AA27FD
:101F0000BB2757016801A82AB92ACA2ADB2AA216C8
:101F1000B306C406D50690F4A20CB31CC41CD51C91
:101F2000A214B304C404D50448F0A216B306C40630
:101F3000D50620F4A20CB31CC41CD51CA21AB30AEB
:101F4000C40AD50AC601B501A40193010E944F1C21
:101F50007B018C01C601B501A40193010E944F1CB5
:101F6000CA01B90169962CAD3DAD4EAD5FAD699723
:101F7000C8C1211431044104510471F461E070E0DE
:101F800080E090E020E030E040E050E00E944F1C14
:101F9000C901DA011C012D0100E0201600E0300625
:101FA00001E0400600E0500688F41FEF21163104DE
:101FB0004104510439F030F068E0E62EF12C012D97
:101FC000112D18C0EE24FF24870114C020E0221632
:101FD00020E0320620E0420621E0520630F058E1CF
:101FE000E52EF12C012D112D05C040E1E42EF12C40
:101FF000012D112DD201C1010E2C04C0B695A7955B
:10200000979587950A94D2F78E549E4FDC012C91B8
:1020100030E2A32EB12CC12CD12CD601C5018E19D2
:102020009F09A00BB10B7C018D01E21AF108010997
:1020300011096596ECAEFDAE0EAF1FAF6597E114CA
:10204000F1040105110539F464015301A218B30824
:10205000C408D508ECC06296FFAC6297E496FFAE68
:10206000E4970F2C04C0220C331C441C551C0A940A
:10207000D2F78A2D8F1964015301082E04C0D6941B
:10208000C794B794A7940A94D2F7A401930104C00B
:10209000220F331F441F551FFA94D2F7E8966CACF9
:1020A0007DAC8EAC9FACE89704C0969487947794EF
:1020B00067948A95D2F784017301E22AF32A042BEC
:1020C000152B2996ECAEFDAE0EAF1FAF299732014E
:1020D0008824992492018101207030706D960CAF94
:1020E0001DAF2EAF3FAF6D97C601B501A40193019F
:1020F0000E944F1C7B018C01C601B501A401930114
:102100000E944F1CCA01B9016D962CAD3DAD4EAD7C
:102110005FAD6D970E94301C9B01AC018701FF24CD
:10212000EE242996ACACBDACCEACDFAC2997C60191
:10213000AA27BB275C016D01AE28BF28C02AD12A7F
:10214000A216B306C406D50690F4A20CB31CC41C98
:10215000D51CA214B304C404D50448F0A216B306D7
:10216000C406D50620F4A20CB31CC41CD51CA21AAC
:10217000B30AC40AD50AC601B501A40193010E949D
:102180004F1C7B018C01C601B501A40193010E9483
:102190004F1CCA01B9016D962CAD3DAD4EAD5FAD82
:1021A0006D970E94301C9B01AC018701FF24EE2437
:1021B00029968CAD9DADAEADBFAD2997A070B07026
:1021C00057016801A82AB92ACA2ADB2AA216B3062F
:1021D000C406D50690F4A20CB31CC41CD51CA214D2
:1021E000B304C404D50448F0A216B306C406D50649
:1021F00020F4A20CB31CC41CD51CE896ECACFDACBE
:102200000EAD1FADE897E4960FACE49704C0EE0C5A
:10221000FF1C001F111F0A94D2F72D96ECAEFDAEE5
:102220000EAF1FAF2D97A21AB30AC40AD50A320106
:10223000882499249201810120703070A1960CAFFE
:102240001DAF2EAF3FAFA197C601B501A401930109
:102250000E944F1C7B018C01C601B501A4019301B2
:102260000E944F1CCA01B901A1962CAD3DAD4EADE7
:102270005FADA1970E94301C9B01AC018701FF2438
:10228000EE242D96ACACBDACCEACDFAC2D97C60128
:10229000AA27BB2757016801A82AB92ACA2ADB2A1C
:1022A000A216B306C406D50690F4A20CB31CC41C37
:1022B000D51CA214B304C404D50448F0A216B30676
:1022C000C406D50620F4A20CB31CC41CD51CA21A4B
:1022D000B30AC40AD50AC601B501A40193010E943C
:1022E0004F1C7B018C01C601B501A40193010E9422
:1022F0004F1CCA01B901A1962CAD3DAD4EAD5FADED
:10230000A1970E94301C9B01AC018701FF24EE24A1
:102310002D968CAD9DADAEADBFAD2D97A070B070BC
:10232000E82AF92A0A2B1B2BE216F30604071507E5
:1023300090F4E20CF31C041D151DE214F3040405D3
:10234000150548F0E216F3060407150720F4E20C21
:10235000F31C041D151DE21AF30A040B150BD8011A
:10236000C70162960FAC629704C0B695A795979582
:1023700087950A94D2F789A79AA7ABA7BCA71DA6F1
:102380001EA61FA618AA898B8AA58A8B8BA58B8B64
:102390008CA58C8B8DA58D8B2FC36A147B048C042C
:1023A0009D0448F4498B5A8B6B8B7C8B8D8B9E8B59
:1023B0002F8B388F27C300E0A01600E0B00601E0A5
:1023C000C00600E0D00688F41FEFA116B104C104D6
:1023D000D10439F030F028E0E22EF12C012D112D3E
:1023E00018C0EE24FF24870114C020E0A21620E0CC
:1023F000B20620E0C20621E0D20630F098E1E92ED4
:10240000F12C012D112D05C080E1E82EF12C012DBC
:10241000112DD601C5010E2C04C0B695A795979530
:1024200087950A94D2F78E549E4FDC012C9180E25E
:1024300090E0A0E0B0E08E199F09A00BB10B821BC9
:102440009109A109B1090097A105B10509F059C089
:10245000A614B704C804D90470F0E896ECACFDAC3F
:102460000EAD1FADE897E214F3040405150518F44A
:10247000D801C7012FC0E8968CAD9DADAEADBFAD04
:10248000E89782199309A409B509A40193012A19AF
:102490003B094C095D09AA24BB246501E8966CAC94
:1024A0007DAC8EAC9FACE897681679068A069B06D1
:1024B00028F411E0A12EB12CC12CD12C79018A0174
:1024C000EA18FB080C091D096196ECAEFDAE0EAFD3
:1024D0001FAF619789A79AA7ABA7BCA761960CAD60
:1024E0001DAD2EAD3FAD61970DA71EA72FA738AB31
:1024F000898B8AA58A8B8BA58B8B8CA58C8B0D8B5E
:102500007BC2E3968FAFE397A6019501082E04C026
:10251000220F331F441F551F0A94D2F710E2181BD5
:10252000E2961FAFE297D201C101012E04C0B69519
:10253000A795979587950A94D2F75C016D01A22A19
:10254000B32AC42AD52A2596ACAEBDAECEAEDFAE38
:10255000259772016101E3960FACE39704C0CC0CA0
:10256000DD1CEE1CFF1C0A94D2F72196CCAEDDAE2A
:10257000EEAEFFAE219764015301012E04C0D69444
:10258000C794B794A7940A94D2F7A4019301E39651
:102590000FACE39704C0220F331F441F551F0A944A
:1025A000D2F7E8968CAD9DADAEADBFADE89704C057
:1025B000B695A795979587951A95D2F77C018D01C9
:1025C000E22AF32A042B152BE9AEFAAE0BAF1CAFAF
:1025D000E8960CAD1DAD2EAD3FADE897E3960FAC80
:1025E000E39704C0000F111F221F331F0A94D2F774
:1025F0000DAB1EAB2FAB38AF25962CAD3DAD4EAD20
:102600005FAD25973A018824992440705070A596B3
:102610002CAF3DAF4EAF5FAFA597C601B501A4018A
:1026200093010E944F1C7B018C01C601B501A401DE
:1026300093010E944F1CC901DA011C012D01C20146
:10264000B101A5962CAD3DAD4EAD5FADA5970E94F5
:10265000301C9B01AC018701FF24EE24A9ACBAAC6D
:10266000CBACDCACC601AA27BB2757016801A82A5E
:10267000B92ACA2ADB2AA216B306C406D50610F563
:10268000089421083108410851082596ECACFDACAE
:102690000EAD1FAD2597AE0CBF1CC01ED11EAE14D3
:1026A000BF04C006D10670F0A216B306C406D50654
:1026B00048F408942108310841085108AE0CBF1CA9
:1026C000C01ED11EA21AB30AC40AD50AC601B5019A
:1026D000A40193010E944F1C7B018C01C601B5012E
:1026E000A40193010E944F1CC901DA013C014D0174
:1026F000C401B301A5962CAD3DAD4EAD5FADA59720
:102700000E94301C9B01AC018701FF24EE2489AD9F
:102710009AADABADBCADA070B07057016801A82AEE
:10272000B92ACA2ADB2AA216B306C406D50610F5B2
:102730000894610871088108910825966CAD7DADFB
:102740008EAD9FAD2597A60EB71EC81ED91EA61624
:10275000B706C806D90670F0A216B306C406D50699
:1027600048F408946108710881089108A60EB71E04
:10277000C81ED91ED601C501821B930BA40BB50B35
:1027800089AB9AABABABBCABD1019927882784014D
:102790007301E82AF92A0A2B1B2B8FEFA82E8FEF43
:1027A000B82EC12CD12CAE20BF20C022D12278015E
:1027B0000027112721966CAC7DAC8EAC9FAC219785
:1027C0002FEF3FEF40E050E06222732284229522F7
:1027D00021966CAD7DAD8EAD9FAD2197AC01662786
:1027E0007727AD964CAF5DAF6EAF7FAFAD97C601AB
:1027F000B501A40193010E94301CA9966CAF7DAF76
:102800008EAF9FAFA997C601B501AD962CAD3DAD7A
:102810004EAD5FADAD970E94301C1B012C01C8016D
:10282000B701A40193010E94301C5B016C01C80137
:10283000B701AD962CAD3DAD4EAD5FADAD970E94ED
:10284000301C7B018C01A6019501220D331D441D16
:10285000551DA9966CAC7DAC8EAC9FACA997C401FC
:10286000AA27BB27280F391F4A1F5B1F2A153B05C4
:102870004C055D0548F4812C912CE1E0AE2EB12C85
:10288000E80CF91C0A1D1B1DCA01AA27BB2757010A
:102890006801A80EB91ECA1EDB1EA9013327222714
:1028A000A9968CAD9DADAEADBFADA997A070B0702F
:1028B000280F391F4A1F5B1FE9A8FAA80BA91CA9FA
:1028C000EA14FB040C051D0570F0AE14BF04C0062D
:1028D000D10689F56DA97EA98FA998AD62177307F6
:1028E0008407950740F5DA01C90121966CAC7DACEF
:1028F0008EAC9FAC219786199709A809B90925962E
:10290000ECACFDAC0EAD1FAD2597AE18BF08C00AEC
:10291000D10AEE24FF248701281739074A075B07ED
:1029200028F421E0E22EF12C012D112DAE18BF0864
:10293000C00AD10A02C0DA01C9016DA87EA88FA819
:1029400098AC681A790A8A0A9B0A09A91AA92BA9BC
:102950003CA90A191B092C093D09580169012224C7
:10296000332421012DA93EA94FA958AD26153705BD
:102970004805590528F481E0282E312C412C512C92
:1029800086017501E218F30804091509A8019701E9
:10299000E2960FACE29704C0220F331F441F551F6D
:1029A0000A94D2F7D401C301E3960FACE39704C0B5
:1029B000B695A795979587950A94D2F7282B392B2A
:1029C0004A2B5B2B29A73AA74BA75CA7E3960FAC32
:1029D000E39704C016950795F794E7940A94D2F705
:1029E000EDA6FEA60FA718AB298B8AA58A8B8BA50F
:1029F0008B8B8CA58C8BED8A8EA58E8B8FA58F8B68
:102A000088A9888FE1964CAD5DAD6EAD7FADE19745
:102A1000411551056105710509F467C089892A8945
:102A20003B894C895D89AE89BF89188DF82FF19556
:102A300091E01F1608F090E0822F819521E0181692
:102A400008F020E0E82FE91B91E08E1708F090E0F5
:102A5000292B832F819531E0181608F030E0782F6C
:102A6000721B91E0871708F090E0392B842F819535
:102A700021E0181608F020E0682F631B91E086170C
:102A800008F090E0292B852F819531E0181608F089
:102A900030E0582F521B91E0851708F090E0392B59
:102AA0008A2F819521E0181608F020E0482F431B5B
:102AB00091E0841708F090E0292B8B2F819591E00D
:102AC000181608F090E0382F321B21E0831708F029
:102AD00020E0922B812F8195891BF98BEA8B7B8BD0
:102AE0006C8B5D8B4E8B3F8B888F29893A894B8904
:102AF0005C896D897E898F89988DC958DF4FE2E1A5
:102B00000C948D1CA0E0B0E0E8E8F5E10C94711C99
:102B1000DC012B01FA019C91923008F439C1EB01E0
:102B20008881823008F433C1943069F4843009F02C
:102B30002FC111969C9111978981981709F428C18A
:102B4000AAEAB1E025C1843009F421C18230A9F498
:102B5000923009F01DC19A01AD0188E0EA010990A7
:102B6000AE01E90109929E018150C1F7E20189811C
:102B700011969C918923818308C1923009F407C181
:102B800012962D903C901397EB018A819B811496AD
:102B9000AD90BD90CD90DC901797EC80FD800E81BC
:102BA0001F819101281B390BB90137FF04C066272B
:102BB0007727621B730B603271050CF061C012162F
:102BC00013066CF537014801062E04C096948794CD
:102BD000779467940A94D2F721E030E040E050E027
:102BE00004C0220F331F441F551F6A95D2F721508E
:102BF0003040404050402E213F2140235123211599
:102C000031054105510521F021E030E040E050E080
:102C100079018A01E628F728082919293CC0232BC5
:102C2000D1F1260E371E35014601062E04C09694BA
:102C30008794779467940A94D2F721E030E040E0DB
:102C400050E004C0220F331F441F551F6A95D2F76E
:102C500021503040404050402A213B214C215D21F1
:102C6000211531054105510521F021E030E040E01A
:102C700050E059016A01A628B728C828D9280BC0F6
:102C8000821593052CF01C01AA24BB24650103C006
:102C9000EE24FF24870111969C91D20111968C910C
:102CA000981709F445C0992339F0A80197012A190A
:102CB0003B094C095D0906C0A60195012E193F0983
:102CC000400B510B57FD08C01182338222822483AE
:102CD0003583468357831DC081E0818333822282FE
:102CE00088279927DC01821B930BA40BB50B8483E7
:102CF0009583A683B7830DC0220F331F441F551F32
:102D000024833583468357838281938101979383FC
:102D100082832481358146815781DA01C901019777
:102D2000A109B1098F5F9F4FAF4FBF4328F30BC07D
:102D3000918333822282EA0CFB1C0C1D1D1DE48250
:102D4000F5820683178383E0808324813581468161
:102D5000578157FF1AC0C901AA2797FDA095BA2F1E
:102D600081709070A070B0705695479537952795F3
:102D7000822B932BA42BB52B84839583A683B783B7
:102D800082819381019693838283DF0101C0D20106
:102D9000CD01CDB7DEB7E2E10C948D1CA0E2B0E02E
:102DA000E4EDF6E10C947D1C69837A838B839C832C
:102DB0002D833E834F835887E9E0EE2EF12CEC0EF5
:102DC000FD1ECE010196B7010E94381B8E010F5ED9
:102DD0001F4FCE010596B8010E94381B8A8991E0E9
:102DE00089278A8BC701B801AE01475E5F4F0E94F9
:102DF00082150E94631AA096E6E00C94991CA0E24A
:102E0000B0E0E5E0F7E10C947D1C69837A838B8365
:102E10009C832D833E834F835887F9E0EF2EF12C5E
:102E2000EC0EFD1ECE010196B7010E94381B8E01EB
:102E30000F5E1F4FCE010596B8010E94381BC701D7
:102E4000B801AE01475E5F4F0E9482150E94631A6F
:102E5000A096E6E00C94991CA0E2B0E0E2E3F7E172
:102E60000C94711C69837A838B839C832D833E83AE
:102E70004F835887CE010196BE01675F7F4F0E9446
:102E8000381BCE010596BE016F5E7F4F0E94381B36
:102E90009985923088F089898230C8F0943019F48D
:102EA000823051F404C0843029F4923081F48AEAEB
:102EB00091E0C6C0923049F420E09A858A8998133F
:102EC00021E02A87CE010996BBC0823049F420E078
:102ED0009A858A89981321E02A8BCE014196B0C049
:102EE0002D843E844F8458886D887E888F88988C86
:102EF000EE24FF248701AA24BB24650140E050E0B2
:102F000060E070E0E0E0F0E0C10181709070892B3A
:102F1000E9F0E60CF71C081D191D9A01AB012A0DFA
:102F20003B1D4C1D5D1D80E090E0A0E0B0E0E6148C
:102F3000F7040805190520F481E090E0A0E0B0E076
:102F4000BA01A901480F591F6A1F7B1FAA0CBB1C9D
:102F5000CC1CDD1C97FE08C081E090E0A0E0B0E052
:102F6000A82AB92ACA2ADB2A3196E032F10549F0AB
:102F7000660C771C881C991C5694479437942794A8
:102F8000C3CFFA85EA892B893C898B859C85280FDC
:102F9000391F2E5F3F4F17C0CA0181709070892B77
:102FA00061F016950795F794E79480E090E0A0E033
:102FB000B0E8E82AF92A0A2B1B2B769567955795D6
:102FC00047952F5F3F4F77FDE7CF0CC0440F551F4C
:102FD000661F771F17FD4160EE0CFF1C001F111FBD
:102FE00021503040403090E0590790E0690790E46C
:102FF000790760F32B8F3C8FDB01CA018F779070CC
:10300000A070B07080349105A105B10561F447FD51
:103010000AC0E114F1040105110529F0405C5F4F7D
:103020006F4F7F4F40781A8EFE1711F081E08A8F24
:103030004D8F5E8F6F8F78A383E0898FCE01499685
:103040000E94631AA096E2E10C948D1CA8E1B0E006
:10305000ECE2F8E10C94791C69837A838B839C837E
:103060002D833E834F835887B9E0EB2EF12CEC0E75
:10307000FD1ECE010196B7010E94381B8E010F5E26
:103080001F4FCE010596B8010E94381B29852230BA
:1030900008F47EC03989323010F4B8017CC08A85CA
:1030A0009A8989278A87243011F0223031F4231736
:1030B00009F06EC06AEA71E06EC0343039F41D86E2
:1030C0001E861F86188A1C861B8604C0323021F497
:1030D00084E08987B7015FC02B853C858B899C89FB
:1030E000281B390B3C872B87ED84FE840F851889BC
:1030F000AD88BE88CF88D88CEA14FB040C051D056A
:1031000040F4EE0CFF1C001F111F215030403C8783
:103110002B8720E030E040E050E080E090E0A0E04D
:10312000B0E460E070E0EA14FB040C051D0540F01B
:10313000282B392B4A2B5B2BEA18FB080C091D099D
:10314000B695A79597958795EE0CFF1C001F111F4C
:103150006F5F7F4F6F31710531F7DA01C9018F77EA
:103160009070A070B07080349105A105B10561F434
:1031700027FD0AC0E114F1040105110529F0205CC6
:103180003F4F4F4F5F4F20782D873E874F87588B9B
:10319000BE01675F7F4FCB010E94631A6896EAE029
:1031A0000C94951CA8E1B0E0E8EDF8E10C947D1CCE
:1031B00069837A838B839C832D833E834F835887D7
:1031C00089E0E82EF12CEC0EFD1ECE010196B70130
:1031D0000E94381B8E010F5E1F4FCE010596B8016D
:1031E0000E94381B8985823040F08989823028F01E
:1031F000C701B8010E94B01B01C08FEF6896E6E0DE
:103200000C94991CA8E1B0E0E8E0F9E10C947D1C75
:1032100069837A838B839C832D833E834F83588776
:1032200089E0E82EF12CEC0EFD1ECE010196B701CF
:103230000E94381B8E010F5E1F4FCE010596B8010C
:103240000E94381B8985823040F08989823028F0BD
:10325000C701B8010E94B01B01C08FEF6896E6E07D
:103260000C94991CA8E1B0E0E8E3F9E10C947D1C12
:1032700069837A838B839C832D833E834F83588716
:1032800089E0E82EF12CEC0EFD1ECE010196B7016F
:103290000E94381B8E010F5E1F4FCE010596B801AC
:1032A0000E94381B8985823040F08989823028F05D
:1032B000C701B8010E94B01B01C081E06896E6E03A
:1032C0000C94991CA8E0B0E0E8E6F9E10C947A1CB3
:1032D0009B01AC0183E08983DA01C9018827B7FD2E
:1032E00083959927AA27BB27B82E211531054105BB
:1032F000510519F482E089833AC08823A9F020306F
:1033000080E0380780E0480780E8580729F460E04B
:1033100070E080E09FEC30C0EE24FF248701E21AC9
:10332000F30A040B150B02C079018A018EE1C82E45
:10333000D12CDC82CB82ED82FE820F831887C801FC
:10334000B7010E94141A01971816190684F4082E62
:1033500004C0EE0CFF1C001F111F0A94D2F7ED826F
:10336000FE820F831887C81AD90ADC82CB82BA8200
:10337000CE0101960E94631A2896E9E00C94961CEF
:10338000ACE0B0E0E6ECF9E10C94811C69837A834F
:103390008B839C83CE010196BE016B5F7F4F0E94A1
:1033A000381B8D81823061F1823050F1843021F4FC
:1033B0008E81882351F12EC02F81388537FD20C0A2
:1033C0006E812F3131051CF06623F9F023C08EE1A8
:1033D00090E0821B930B29853A854B855C8504C060
:1033E00056954795379527958A95D2F76623B1F07C
:1033F00050954095309521953F4F4F4F5F4F0EC0F0
:1034000020E030E040E050E009C02FEF3FEF4FEF09
:103410005FE704C020E030E040E050E8B901CA01B5
:103420002C96E2E00C949D1CEF92FF920F931F9359
:103430007B018C0180E0E81680E0F80681E0080757
:1034400080E0180788F48FEFE816F10401051105F4
:1034500031F028F088E090E0A0E0B0E017C080E014
:1034600090E0A0E0B0E012C080E0E81680E0F8064E
:1034700080E0080781E0180728F088E190E0A0E0EC
:10348000B0E004C080E190E0A0E0B0E020E230E0F5
:1034900040E050E0281B390B4A0B5B0B04C016952B
:1034A0000795F794E7948A95D2F7F701EE54FE4F0B
:1034B0008081281B310941095109C9011F910F91D0
:1034C000FF90EF900895DF92EF92FF920F931F937A
:1034D000FC01E480F58006811781D18080818230F3
:1034E00048F480E090E0A0E1B0E0E82AF92A0A2B55
:1034F0001B2BA5C0843009F49FC0823021F4EE2438
:10350000FF24870105C0E114F1040105110519F438
:10351000E0E0F0E096C0628173819FEF6238790746
:103520000CF05BC022E83FEF261B370B2A31310538
:103530002CF020E030E040E050E02AC0B801A701C4
:10354000022E04C076956795579547950A94D2F751
:1035500081E090E0A0E0B0E004C0880F991FAA1FAE
:10356000BB1F2A95D2F70197A109B1098E219F218E
:10357000A023B1230097A105B10521F081E090E0DF
:10358000A0E0B0E09A01AB01282B392B4A2B5B2B32
:10359000DA01C9018F779070A070B0708034910506
:1035A000A105B10539F427FF09C0205C3F4F4F4FFB
:1035B0005F4F04C0215C3F4F4F4F5F4FE0E0F0E0B2
:1035C0002030A0E03A07A0E04A07A0E45A0710F034
:1035D000E1E0F0E079018A0127C06038710564F507
:1035E000FB01E158FF4FD801C7018F779070A070A1
:1035F000B07080349105A105B10539F4E7FE0DC026
:1036000080E490E0A0E0B0E004C08FE390E0A0E0B0
:10361000B0E0E80EF91E0A1F1B1F17FF05C0169524
:103620000795F794E794319687E016950795F794F8
:10363000E7948A95D1F705C0EE24FF248701EFEFC8
:10364000F0E06E2F679566276795902F9F77D79448
:10365000DD24D7948E2F8695492F462B582F5D2930
:10366000B701CA011F910F91FF90EF90DF9008956D
:10367000FC01DB01408151812281622F6F7770E074
:10368000221F2227221F9381892F880F822B282F08
:1036900030E0991F9927991F11969C931197211536
:1036A0003105A9F5411551056105710511F482E057
:1036B00037C082E89FEF13969C938E9312979A01DE
:1036C000AB0167E0220F331F441F551F6A95D1F7E6
:1036D00083E08C930DC0220F331F441F551F129699
:1036E0008D919C911397019713969C938E931297AB
:1036F000203080E0380780E0480780E4580758F31E
:1037000014962D933D934D935C93179708952F3FF7
:10371000310579F4411551056105710519F484E00D
:103720008C93089564FF03C081E08C9312C01C92B7
:1037300010C02F57304013963C932E93129783E07E
:103740008C9387E0440F551F661F771F8A95D1F72A
:10375000706414964D935D936D937C9317970895C1
:103760001F93DC01FB019C91923008F447C08081DB
:10377000823008F443C0943051F411961C91843087
:1037800099F58181682F70E0611B71093FC0843019
:1037900021F0923031F48230B9F18181882389F1AE
:1037A0002DC011961C9111978230F1F0818118176C
:1037B000D9F412962D913C911397828193818217AF
:1037C000930794F028173907BCF014968D919D91BA
:1037D0000D90BC91A02D24813581468157812817F9
:1037E00039074A075B0718F4112341F00AC0821712
:1037F0009307A407B50740F4112319F061E070E0C6
:1038000005C06FEF7FEF02C060E070E0CB011F9159
:103810000895AA1BBB1B51E107C0AA1FBB1FA61717
:10382000B70710F0A61BB70B881F991F5A95A9F769
:1038300080959095BC01CD01089597FB092E072630
:103840000AD077FD04D0E5DF06D000201AF4709589
:1038500061957F4F0895F6F7909581959F4F089554
:10386000629FD001739FF001829FE00DF11D649F64
:10387000E00DF11D929FF00D839FF00D749FF00DF0
:10388000659FF00D9927729FB00DE11DF91F639F91
:10389000B00DE11DF91FBD01CF0111240895A1E272
:1038A0001A2EAA1BBB1BFD010DC0AA1FBB1FEE1FBA
:1038B000FF1FA217B307E407F50720F0A21BB30B05
:1038C000E40BF50B661F771F881F991F1A9469F781
:1038D00060957095809590959B01AC01BD01CF01DD
:1038E00008952F923F924F925F926F927F928F92A4
:1038F0009F92AF92BF92CF92DF92EF92FF920F937F
:103900001F93CF93DF93CDB7DEB7CA1BDB0B0FB688
:10391000F894DEBF0FBECDBF09942A883988488845
:103920005F846E847D848C849B84AA84B984C884DB
:10393000DF80EE80FD800C811B81AA81B981CE0FD2
:10394000D11D0FB6F894DEBF0FBECDBFED010895B7
:04395000F894FFCF19
:10395400457468616E0031383539343139004D6150
:1039640078482D522F530031383733313338004AD9
:10397400757374696E0031373038393133006270D1
:103984000032303436363337004D6F7267616E0063
:1039940035383331383533004C617572656E00311A
:1039A40038353631373900526F78792D532F480026
:1039B40031383637323032004B696F6E610031383E
:1039C400353736363000416E6472657700313836EB
:1039D4003730313600427279636500313835323917
:1039E400393500455A0031383535383635003B30E5
:1039F40030003F00F401010001000000000000005D
:103A04000000000102020303030304040404040489
:103A14000404050505050505050505050505050554
:103A24000505060606060606060606060606060634
:103A34000606060606060606060606060606060622
:103A44000606070707070707070707070707070704
:103A540007070707070707070707070707070707F2
:103A640007070707070707070707070707070707E2
:103A740007070707070707070707070707070707D2
:103A840007070808080808080808080808080808B4
:103A940008080808080808080808080808080808A2
:103AA4000808080808080808080808080808080892
:103AB4000808080808080808080808080808080882
:103AC4000808080808080808080808080808080872
:103AD4000808080808080808080808080808080862
:103AE4000808080808080808080808080808080852
:103AF4000808080808080808080808080808080842
:023B04000808AF
:00000001FF
