:100000000C9434000C9451000C9451000C94510049
:100010000C9453000C9451000C9451000C9451001A
:100020000C9451000C9451000C9451000C9451000C
:100030000C9451000C9451000C9451000C945100FC
:100040000C9451000C9451000C9451000C945100EC
:100050000C9451000C9451000C9451000C945100DC
:100060000C9451000C94510011241FBECFEFD8E026
:10007000DEBFCDBF12E0A0E0B1E0EAECF6E302C0E3
:1000800005900D92A238B107D9F712E0A2E8B2E0CC
:1000900001C01D92A63AB107E1F70E945D0B0C94D6
:1000A000631B0C9400001F920F920FB60F92112445
:1000B0009F92AF92BF92CF92DF92EF92FF920F93F7
:1000C0001F932F933F934F935F936F937F938F93E0
:1000D0009F93AF93BF93EF93FF9326B130E0A901B5
:1000E00041705070C9019595879595958795817058
:1000F000907090937601809375013595279520FF38
:10010000D4C04130510509F070C280919C02909199
:100110009D028430910509F04CC080918C022091A1
:100120008D0230918E0240918F0260919002E09199
:100130009102A091920210919302B82FBF5F91E0BB
:10014000B81708F090E0F92FF20F81E0F21708F0ED
:1001500080E0782F730F81E0731708F080E0582F4C
:10016000540F81E0541708F080E0382F360F81E0FB
:10017000361708F080E0282F2E0F81E02E1708F0A8
:1001800080E0982F9A0F81E09A1708F080E0810FA5
:10019000B0938C02F0938D0270938E0250938F0275
:1001A0003093900220939102909392028093930255
:1001B00079C0029709F076C080918C0230918D024F
:1001C00040918E0260918F02E0919002A091910285
:1001D0001091920250919302082F015091E008175C
:1001E00008F090E0832F815021E0831708F020E091
:1001F000B92FB80F91E0B81708F090E0292B842FA1
:10020000815031E0841708F030E0F22FF80F91E0D0
:10021000F81708F090E0392B862F815021E08617DF
:1002200008F020E0732F780F91E0781708F090E045
:10023000292B8E2F815031E08E1708F030E0622F8D
:10024000680F91E0681708F090E0392B8A2F8150F1
:1002500021E08A1708F020E0432F480F91E048176B
:1002600008F090E0292B812F815091E0811708F050
:1002700090E0322F380F21E0381708F020E0922B61
:100280005150950F00938C02B0938D02F0938E0223
:1002900070938F0260939002409391023093920288
:1002A0009093930281E090E072C280919C029091C1
:1002B0009D024130510509F0CCC08130910509F013
:1002C0004CC080918C0220918D0230918E02409121
:1002D0008F0260919002E0919102A09192021091A0
:1002E0009302B82FBF5F91E0B81708F090E0F92FA4
:1002F000F20F81E0F21708F080E0782F730F81E0B1
:10030000731708F080E0582F540F81E0541708F05D
:1003100080E0382F360F81E0361708F080E0282F74
:100320002E0F81E02E1708F080E0982F9A0F81E0C1
:100330009A1708F080E0810FB0938C02F0938D0241
:1003400070938E0250938F0230939002209391020B
:10035000909392028093930279C0039709F076C03C
:1003600080918C0230918D0240918E0260918F02BB
:10037000E0919002A091910210919202509193020B
:10038000082F015091E0081708F090E0832F81506A
:1003900021E0831708F020E0B92FB80F91E0B817DB
:1003A00008F090E0292B842F815031E0841708F069
:1003B00030E0F22FF80F91E0F81708F090E0392BB9
:1003C000862F815021E0861708F020E0732F780FE8
:1003D00091E0781708F090E0292B8E2F815031E0C2
:1003E0008E1708F030E0622F680F91E0681708F070
:1003F00090E0392B8A2F815021E08A1708F020E005
:10040000432F480F91E0481708F090E0292B812FE7
:10041000815091E0811708F090E0322F380F21E0F1
:10042000381708F020E0922B5150950F00938C0262
:10043000B0938D02F0938E0270938F0260939002BE
:1004400040939102309392029093930282E090E065
:100450009EC18230910509F04CC080918C022091A0
:100460008D0230918E0240918F0260919002E09156
:100470009102A091920210919302B82FBF5F91E078
:10048000B81708F090E0F92FF20F81E0F21708F0AA
:1004900080E0782F730F81E0731708F080E0582F09
:1004A000540F81E0541708F080E0382F360F81E0B8
:1004B000361708F080E0282F2E0F81E02E1708F065
:1004C00080E0982F9A0F81E09A1708F080E0810F62
:1004D000B0938C02F0938D0270938E0250938F0232
:1004E0003093900220939102909392028093930212
:1004F00079C0049709F076C080918C0230918D020A
:1005000040918E0260918F02E0919002A091910241
:100510001091920250919302082F015091E0081718
:1005200008F090E0832F815021E0831708F020E04D
:10053000B92FB80F91E0B81708F090E0292B842F5D
:10054000815031E0841708F030E0F22FF80F91E08D
:10055000F81708F090E0392B862F815021E086179C
:1005600008F020E0732F780F91E0781708F090E002
:10057000292B8E2F815031E08E1708F030E0622F4A
:10058000680F91E0681708F090E0392B8A2F8150AE
:1005900021E08A1708F020E0432F480F91E0481728
:1005A00008F090E0292B812F815091E0811708F00D
:1005B00090E0322F380F21E0381708F020E0922B1E
:1005C0005150950F00938C02B0938D02F0938E02E0
:1005D00070938F0260939002409391023093920245
:1005E0009093930283E090E0D2C0452B09F0D3C0F2
:1005F00080919C0290919D028330910509F04CC03E
:1006000080918C0220918D0230918E0240918F0258
:1006100060919002E0919102A09192021091930258
:10062000B82FBF5F91E0B81708F090E0F92FF20FF4
:1006300081E0F21708F080E0782F730F81E07317E4
:1006400008F080E0582F540F81E0541708F080E044
:10065000382F360F81E0361708F080E0282F2E0F54
:1006600081E02E1708F080E0982F9A0F81E09A170A
:1006700008F080E0810FB0938C02F0938D027093AC
:100680008E0250938F0230939002209391029093A8
:1006900092028093930279C0019709F076C080910D
:1006A0008C0230918D0240918E0260918F02E09118
:1006B0009002A09191021091920250919302082F02
:1006C000015091E0081708F090E0832F815021E05D
:1006D000831708F020E0B92FB80F91E0B81708F0A1
:1006E00090E0292B842F815031E0841708F030E00E
:1006F000F22FF80F91E0F81708F090E0392B862FD1
:10070000815021E0861708F020E0732F780F91E0E8
:10071000781708F090E0292B8E2F815031E08E174A
:1007200008F030E0622F680F91E0681708F090E061
:10073000392B8A2F815021E08A1708F020E0432FBF
:10074000480F91E0481708F090E0292B812F815045
:1007500091E0811708F090E0322F380F21E0381730
:1007600008F020E0922B5150950F00938C02B0932B
:100770008D02F0938E0270938F02609390024093EB
:100780009102309392029093930284E090E09093D0
:100790009D0280939C02E0918C02F0918D02A091C9
:1007A0008E02B0918F0200919002209191023091BF
:1007B0009202E0909302FE2E1F2FAD01602F722F48
:1007C000832F9E2DEE2064F51E2F1D5F81E01E17E6
:1007D00008F080E0E82FEF0F81E0EF1708F080E0ED
:1007E000482F4A0F81E04A1708F080E0582F5B0F2E
:1007F00081E05B1708F080E0682F600F81E06017F0
:1008000008F080E0782F720F81E0721708F080E026
:10081000830F91E0831708F090E0F12E1E2F9E0DBC
:100820002F2D312F02E00E94620B182F209384029B
:10083000309385024093860250938702609388022A
:100840007093890280938A0290938B028091940224
:10085000F0919502A0919602B091970200919802B2
:10086000C0909902A0909A0290909B02B22EB81A62
:10087000E1E02B1508F0E0E0832F8F1BF1E0381743
:1008800008F0F0E0D82EDE1AE1E08D1508F0E0E087
:10089000FE2B842F8A1BA1E0481708F0A0E0E82E69
:1008A000EF1AE1E08E1508F0E0E0AE2B852F8B1BF0
:1008B000F1E0581708F0F0E0F82EFA1AE1E08F1591
:1008C00008F0E0E0FE2B862F801BA1E0681708F0FF
:1008D000A0E0082F0F1BE1E0801708F0E0E0AE2B4E
:1008E000872F8C19F1E0781708F0F0E0B82FBA1BC9
:1008F000E1E08B1708F0E0E0FE2B812F8A19E1E0A0
:10090000181708F0E0E0A82FAF1BF1E08A1708F0F5
:10091000F0E0EF2B892F89198E1B18168CF0882395
:10092000F9F4AA2369F4BB2359F4002349F4FF2006
:1009300039F4EE2029F4DD2019F483E08B1580F4DE
:10094000209394023093950240939602509397021D
:10095000609398027093990210939A0290939B026D
:10096000FF91EF91BF91AF919F918F917F916F9187
:100970005F914F913F912F911F910F91FF90EF90B9
:10098000DF90CF90BF90AF909F900F900FBE0F90D1
:100990001F9018958BB943984498459A80EA9FE038
:1009A0000197F1F7459808958BB9439A4498459A71
:1009B00080EA9FE00197F1F7459808950F931F9300
:1009C000459882EC91E020E931E0F9013197F1F7A7
:1009D0000197D9F780E30E94CA048AE18A95F1F76A
:1009E00080E30E94CA0400E812E0C8010197F1F711
:1009F00080E30E94CA04C8010197F1F788E30E94CE
:100A0000CA0480E10E94CA048CE00E94CA0486E005
:100A10000E94CA041F910F9108952F923F924F9206
:100A20005F926F927F928F929F92AF92BF92CF927E
:100A3000DF92EF92FF920F931F93409182025091A9
:100A40008302019709F0A6C12091730130917401CE
:100A5000452B09F0C7C02998289AB901882777FD46
:100A60008095982F0E9430181B012C012BEA3AEA3E
:100A70004AEA50E40E94FA153B014C0120E030E0C4
:100A800040E85FE30E940018882314F461E054C03A
:100A9000C401B30120E030E04FE753E40E94A01707
:100AA00018160CF045C0C201B10120E030E04AE761
:100AB00054E40E94F4165B016C0120E030E04AE748
:100AC00055E40E94FA157B018C0120E030E040E8FB
:100AD0005FE30E94001888231CF461E070E024C0EA
:100AE000C801B70120E03FEF4FE757E40E94A0178D
:100AF0001816B4F4C601B50120E030E040E251E43C
:100B00000E94FA150E94E70B80E991E005C0FC0104
:100B10003197F1F76150704061157105C1F70EC052
:100B2000C801B7010E94E70BCB010197F1F706C09E
:100B3000C401B3010E94E70B6A95F1F72898299A3E
:100B4000C401B30120E030E040E85FE30E940018F8
:100B500088230CF4C6C0C401B30120E030E04FE7A5
:100B600053E40E94A01718160CF00DC1C201B10188
:100B700020E030E04AE754E40E94F4165B016C0187
:100B800020E030E04AE755E40E94FA157B018C0131
:100B900020E030E040E85FE30E94001888230CF476
:100BA000C7C0C801B70120E03FEF4FE757E40E94FC
:100BB000A01718160CF0DFC0C601B50120E030E028
:100BC00040E251E40E94FA150E94E70B80E991E0AF
:100BD00005C0FC013197F1F7615070406115710556
:100BE000C1F7D4C12898299AB901882777FD809543
:100BF000982F0E9430181B012C012BEA3AEA4AEA8E
:100C000050E40E94FA153B014C0120E030E040E83E
:100C10005FE30E940018882314F461E054C0C4010B
:100C2000B30120E030E04FE753E40E94A01718160C
:100C30000CF045C0C201B10120E030E04AE754E4C5
:100C40000E94F4165B016C0120E030E04AE755E4B5
:100C50000E94FA157B018C0120E030E040E85FE360
:100C60000E94001888231CF461E070E024C0C801D1
:100C7000B70120E03FEF4FE757E40E94A017181696
:100C8000B4F4C601B50120E030E040E251E40E9436
:100C9000FA150E94E70B80E991E005C0FC0131974D
:100CA000F1F76150704061157105C1F70EC0C801C0
:100CB000B7010E94E70BCB010197F1F706C0C40111
:100CC000B3010E94E70B6A95F1F72998289AC401AD
:100CD000B30120E030E040E85FE30E940018882381
:100CE00014F461E054C0C401B30120E030E04FE7E8
:100CF00053E40E94A01718160CF045C0C201B101C0
:100D000020E030E04AE754E40E94F4165B016C01F5
:100D100020E030E04AE755E40E94FA157B018C019F
:100D200020E030E040E85FE30E94001888231CF4D4
:100D300061E070E024C0C801B70120E03FEF4FE759
:100D400057E40E94A0171816B4F4C601B50120E0BC
:100D500030E040E251E40E94FA150E94E70B80E97E
:100D600091E005C0FC013197F1F7615070406115C9
:100D70007105C1F70BC1C801B7010E94E70BCB0198
:100D80000197F1F703C1C401B3010E94E70B6A9513
:100D9000F1F7FCC02091730130917401452B09F0EB
:100DA0007CC02998289A220F331FB901882777FD24
:100DB0008095982F0E9430185B016C012BEA3AEA6B
:100DC0004AEA50E40E94FA157B018C0120E030E0F1
:100DD00040E85FE30E940018882314F461E054C0E7
:100DE000C801B70120E030E04FE753E40E94A017AC
:100DF00018160CF045C0C601B50120E030E04AE706
:100E000054E40E94F4165B016C0120E030E04AE7F4
:100E100055E40E94FA157B018C0120E030E040E8A7
:100E20005FE30E94001888231CF461E070E024C096
:100E3000C801B70120E03FEF4FE757E40E94A01739
:100E40001816B4F4C601B50120E030E040E251E4E8
:100E50000E94FA150E94E70B80E991E005C0FC01B1
:100E60003197F1F76150704061157105C1F70EC0FF
:100E7000C801B7010E94E70BCB010197F1F706C04B
:100E8000C801B7010E94E70B6A95F1F781E090E095
:100E9000909383028093820279C02898299A220F26
:100EA000331FB901882777FD8095982F0E9430184D
:100EB0005B016C012BEA3AEA4AEA50E40E94FA1517
:100EC0007B018C0120E030E040E85FE30E940018E5
:100ED000882314F461E054C0C801B70120E030E079
:100EE0004FE753E40E94A01718160CF045C0C60146
:100EF000B50120E030E04AE754E40E94F4165B01BB
:100F00006C0120E030E04AE755E40E94FA157B01CD
:100F10008C0120E030E040E85FE30E940018882365
:100F20001CF461E070E024C0C801B70120E03FEF8D
:100F30004FE757E40E94A0171816B4F4C601B50194
:100F400020E030E040E251E40E94FA150E94E70BF5
:100F500080E991E005C0FC013197F1F761507040E4
:100F600061157105C1F70EC0C801B7010E94E70BFA
:100F7000CB010197F1F706C0C801B7010E94E70B4A
:100F80006A95F1F710928302109282021F910F91DD
:100F9000FF90EF90DF90CF90BF90AF909F908F9099
:100FA0007F906F905F904F903F902F90089585B104
:100FB0008C7D85B908950F931F93CF93DF93CEE96E
:100FC000D2E000E010E0888180FD05C080E090E084
:100FD0000E940D0506C081E090E00E940D050F5FA4
:100FE0001F4F1992199282E0C63AD80761F700FDA7
:100FF00003C081E090E002C080E090E00E940D0517
:10100000DF91CF911F910F910895863309F4A7C006
:10101000873394F4823309F44CC0833334F480333F
:1010200069F1813309F0D3C132C0843309F47CC043
:1010300085330CF082C053C0893309F4E4C08A338D
:101040003CF4873309F4AAC0883309F0C0C1D2C088
:101050008C3309F41FC18D333CF48A3309F4E5C0A5
:101060008B3309F0B4C1F7C08E3309F448C18E3315
:101070000CF433C18F3309F0AAC171C180E090E054
:101080000E940D0580E090E00E940D0542C081E0C5
:1010900090E00E940D0580919E0290919F02019622
:1010A00090939F0280939E0280E090E00E940D0545
:1010B00011C080E090E00E940D0581E090E00E9468
:1010C0000D058091A0029091A10201969093A1023A
:1010D0008093A00280E090E00E940D0586C081E030
:1010E00090E00E940D0580919E0290919F020196D2
:1010F00090939F0280939E0281E090E00E940D05F4
:101100008091A0029091A10201969093A1028093F8
:10111000A00280E090E00E940D0580E090E00E9437
:101120000D0581E090E018C180E090E00E940D057F
:1011300080E090E00E940D054BC081E090E00E94AD
:101140000D0580919E0290919F02019690939F02BF
:1011500080939E0280E090E00E940D0511C080E027
:1011600090E00E940D0581E090E00E940D058091C5
:10117000A0029091A10201969093A1028093A002F7
:1011800081E090E00E940D058091A2029091A3025F
:1011900001969093A3028093A202BFCF81E090E0DA
:1011A0000E940D0580919E0290919F02019690935E
:1011B0009F0280939E0281E090E00E940D05809145
:1011C000A0029091A10201969093A1028093A002A7
:1011D00081E090E00E940D058091A2029091A3020F
:1011E00001969093A3028093A20280E090E00E9477
:1011F0000D05B0C080E090E00E940D0580E090E019
:101200000E940D0542C081E090E00E940D05809192
:101210009E0290919F02019690939F0280939E025E
:1012200080E090E00E940D0511C080E090E00E94F7
:101230000D0581E090E00E940D058091A002909143
:10124000A10201969093A1028093A00280E090E019
:101250000E940D0534C081E090E00E940D05809150
:101260009E0290919F02019690939F0280939E020E
:1012700081E090E00E940D058091A0029091A10272
:1012800001969093A1028093A00280E090E00E94DA
:101290000D0553C080E090E00E940D0580E090E0D5
:1012A0000E940D0581E090E00E940D058091A20250
:1012B0009091A30201969093A3028093A20281E0F1
:1012C00090E00E940D058091A4029091A5020196E4
:1012D0009093A5028093A40224CF81E090E00E9425
:1012E0000D0580919E0290919F02019690939F021E
:1012F00080939E0280E090E00E940D0511C080E086
:1013000090E00E940D0581E090E00E940D05809123
:10131000A0029091A10201969093A1028093A00255
:1013200081E090E00E940D058091A2029091A302BD
:1013300001969093A3028093A20281E090E00E9424
:101340000D058091A4029091A50201969093A502AB
:101350008093A40280E090E00E940D05089581E052
:1013600090E00E940D0580919E0290919F0201964F
:1013700090939F0280939E0281E090E00E940D0571
:101380008091A0029091A10201969093A102809376
:10139000A00281E090E00E940D058091A202909150
:1013A000A30201969093A3028093A20281E090E0B1
:1013B0000E940D058091A4029091A5020196909340
:1013C000A5028093A40281E090E00E940D0508959B
:1013D0008BE384B98FEF8AB988E387B92D98ECE65F
:1013E000F0E0808187608083E8E6F0E080818260C1
:1013F000808378940E94DE0408956AE070E00E9481
:10140000D71A805D08952F923F924F925F926F920C
:101410007F928F929F92AF92BF92CF92DF92EF9284
:10142000FF920F931F93DF93CF93CDB7DEB76C97E7
:101430000FB6F894DEBF0FBECDBFFE0131968CE132
:10144000DF011D928A95E9F780E091E09C838B8310
:1014500086E091E09A8389838EE091E098878F837C
:1014600087E191E09E838D838FE191E09C878B875C
:1014700086E291E09A8789878EE291E0988B8F8748
:1014800085E391E09E878D878DE391E09C8B8B8B2C
:1014900086E491E09A8B898B8EE491E0988F8F8B14
:1014A00084E591E09E8B8D8B8CE591E09C8F8B8FFA
:1014B00083E691E09A8F898F209184023091850292
:1014C0004091860250918702609188027091890252
:1014D00080918A0290918B021916F4F0992371F48D
:1014E0008823D1F47723C1F46623B1F45523A1F402
:1014F000442391F4332381F4222371F4F7E0AF2ED7
:10150000BB24CC24DD24EE24FF2400E010E00E9464
:10151000130CD90116960CC0E7E0AE2EBB24CC24E8
:10152000DD24EE24FF2400E010E00E94130CD9011A
:10153000AA0FBB1FAA0FBB1FE1E0F0E0EC0FFD1FDD
:10154000EA0FFB1FC280D38081E090E08C0F9D1FCB
:10155000A80FB91FAD90BC9081E00E94CA0480EF33
:101560009AE00197F1F7D6010D900020E9F77D018F
:101570000894E108F108EC18FD0800E010E00E15F1
:101580001F0514F080E204C0F601E00FF11F808116
:101590000E94D4040F5F1F4F0830110581F780ECC3
:1015A0000E94CA0480EF9AE00197F1F7D5010D90EF
:1015B0000020E9F77D010894E108F108EA18FB082A
:1015C00000E010E00E151F0514F080E204C0F501E4
:1015D000E00FF11F80810E94D4040F5F1F4F08307D
:1015E000110581F783B190E095958795959587953D
:1015F000817090709093780180937701809175014C
:1016000090917601892B19F028EE33E04DC081E0EE
:101610000E94CA042D9A00E010E080E090E00E9451
:101620000D050F5F1F4F0A311105B9F780916B014E
:101630000E94050880916C010E94050880916D014F
:101640000E94050880916E010E94050800E010E0EC
:10165000F501E00FF11F80810E9405080F5F1F4F09
:1016600007301105A9F7809170010E94050880914B
:1016700071010E9405080E94DB0700E010E080E095
:1016800090E00E940D050F5F1F4F04311105B9F75F
:1016900085B18C7D85B988E893E1E0E9F1E0319787
:1016A000F1F70197D1F7B0CF80E991E00197F1F719
:1016B0002150304009F400CFF7CF0E94E8090E9482
:1016C000030AFDCFEF92FF920F93DF93CF93CDB735
:1016D000DEB760970FB6F894DEBF0FBECDBFA82F60
:1016E000002309F467C07E010894E11CF11C88E026
:1016F000F70111928A95E9F729833A834B835C833A
:101700006D837E83AF83988780E2801B4D815E81ED
:101710006F817885E82FFF27E7FDF0951816B4F064
:10172000DB01CA01BB0F880B982FDC018D879E87D8
:10173000AF87B88B882799278E1B9F0B04C07595A0
:101740006795579547958A95D2F728C0202F33275C
:1017500027FD3095DB01CA01022E04C0B595A7957F
:10176000979587950A94D2F78D879E87AF87B88B18
:1017700004C0440F551F661F771FEA95D2F7898171
:101780009A81AB81BC8104C0B695A7959795879542
:101790002A95D2F7482B592B6A2B7B2B49875A87DE
:1017A0006B877C8729853A854B855C856D857E8531
:1017B000AF8598898A2F60960FB6F894DEBF0FBE6A
:1017C000CDBFCF91DF910F91FF90EF900895EF92F1
:1017D000FF920F931F937B018C0120E030E040E0EB
:1017E0005FE40E94D01788238CF0C801B70120E085
:1017F00030E040E05FE40E949C150E948E189B013F
:10180000AC01205030404040504806C0C801B701EC
:101810000E948E189B01AC01B901CA011F910F9162
:10182000FF90EF900895A7E7B0E0E9E1FCE00C94A9
:101830002C1B982E892E712E88E0FE013196DF0137
:10184000682E1D926A94E9F729833A834B835C835F
:101850006D837E839F829887FE013996DF011D92FA
:101860008A95E9F7A986BA86CB86DC86ED86FE8660
:101870000F87188B8D819E81AF81B885B7FD07C01A
:10188000E1961CAE1DAE1EAE1FAEE19764C0219561
:1018900081E0121608F080E0319591E0131608F00F
:1018A00090E0B32FB81B81E03B1708F080E0982B45
:1018B000419531E0141608F030E0A42FA91B81E017
:1018C0004A1708F080E0382B519591E0151608F082
:1018D00090E0F52FF31B81E05F1708F080E0982B74
:1018E000619531E0161608F030E0E62FE91B81E043
:1018F0006E1708F080E0382B719541E0171608F05C
:1019000040E0572F531B81E0751708F080E0482B0B
:10191000892D819591E0181608F090E0682E641AE0
:10192000462D31E0861508F030E0932B882D819507
:10193000891B2983BA83AB83FC83ED835E834F834A
:1019400088872FEF3FEF4FEF5FEFE1962CAF3DAF72
:101950004EAF5FAFE1978D859E85AF85B889B7FFA4
:101960005AC0A19481E01A1408F080E0B19491E08B
:101970001B1408F090E06B2D681B81E0B61608F090
:1019800080E0982BC19421E01C1408F020E05C2D2D
:10199000591B81E0C51608F080E0282BD19491E016
:1019A0001D1408F090E04D2D421B81E0D41608F084
:1019B00080E0982BE19421E01E1408F020E03E2DF9
:1019C000391B81E0E31608F080E0282BF19491E0C8
:1019D0001F1408F090E07F2D721B272F81E0F7166F
:1019E00008F080E0982B019511E0101608F010E047
:1019F000802F891B982F81E0091708F080E0182BB1
:101A0000872D8195811BA9866A875B874C873D87D7
:101A10002E879F87888B99812A813B814C815D81AC
:101A20006E817F81A885B9851A850B85FC84ED843C
:101A3000DE84CF84B88888E0E9E18E2E912C8C0E6C
:101A40009D1EF401682E11926A94E9F7998F2A8FEE
:101A50003B8F4C8F5D8F6E8F7F8FA8A39E012F5D74
:101A60003F4FF90111928A95E9F7B9A31AA30BA385
:101A7000FCA2EDA2DEA2CFA2B8A629A03AA04BA05C
:101A80005CA0ADA0BEA0CFA0D8A4498D5A8D6B8D0F
:101A90007C8DE5964FAFE597E6965FAFE697E796C4
:101AA0006FAFE797E8967FAFE897E8966CAC7DACB0
:101AB0008EAC9FACE8972D966CAE7DAE8EAE9FAE91
:101AC0002D978D8D9E8D2F8D38A13C0149016196FA
:101AD0006CAE7DAE8EAE9FAE6197A114B104C10411
:101AE000D10409F028C3621473048404950408F037
:101AF0000EC100E0201600E0300601E0400600E0E4
:101B0000500688F41FEF211631044104510439F0C6
:101B100030F088E0E82EF12C012D112D18C0EE24B4
:101B2000FF24870114C020E0221620E0320620E0C6
:101B3000420621E0520630F0B8E1EB2EF12C012DE7
:101B4000112D05C0A0E1EA2EF12C012D112DD2019D
:101B5000C1010E2C04C0B695A795979587950A9458
:101B6000D2F78F579E4FDC012C9180E290E0A0E0ED
:101B7000B0E08E199F09A00BB10B5C016D01A21A98
:101B8000B108C108D1086596ACAEBDAECEAEDFAE31
:101B90006597A114B104C104D10409F445C062964B
:101BA0006FAD6297062E04C0220C331C441C551CDA
:101BB0000A94D2F7A4019301062E04C0220F331F0A
:101BC000441F551F0A94D2F780E290E08A199B09BE
:101BD000E896CCACDDACEEACFFACE89704C0F69474
:101BE000E794D794C7948A95D2F787017601E22AC1
:101BF000F32A042B152B6196ECAEFDAE0EAF1FAF92
:101C00006197E8960CAD1DAD2EAD3FADE89704C0D1
:101C1000000F111F221F331F6A95D2F72D960CAFAC
:101C20001DAF2EAF3FAF2D97320188249924A2011A
:101C300091014070507069962CAF3DAF4EAF5FAFD1
:101C4000699761966CAD7DAD8EAD9FAD6197A40136
:101C500093010E940A1B7B018C0161966CAD7DADE6
:101C60008EAD9FAD6197A40193010E940A1BCA012A
:101C7000B90169962CAD3DAD4EAD5FAD69970E943F
:101C8000EB1A9B01AC018701FF24EE242D96ACAC2E
:101C9000BDACCEACDFAC2D97C601AA27BB27570140
:101CA0006801A82AB92ACA2ADB2AA216B306C406E2
:101CB000D50690F4A20CB31CC41CD51CA214B3040A
:101CC000C404D50448F0A216B306C406D50620F411
:101CD000A20CB31CC41CD51CA21AB30AC40AD50A90
:101CE000C601B501A40193010E940A1B7B018C016E
:101CF000C601B501A40193010E940A1BCA01B901E2
:101D000069962CAD3DAD4EAD5FAD6997C8C121144C
:101D100031044104510471F461E070E080E090E02E
:101D200020E030E040E050E00E940A1BC901DA01E7
:101D30001C012D0100E0201600E0300601E0400605
:101D400000E0500688F41FEF2116310441045104CD
:101D500039F030F068E0E62EF12C012D112D18C07D
:101D6000EE24FF24870114C020E0221620E0320672
:101D700020E0420621E0520630F058E1E52EF12C39
:101D8000012D112D05C040E1E42EF12C012D112D66
:101D9000D201C1010E2C04C0B695A79597958795E1
:101DA0000A94D2F78F579E4FDC012C9130E2A32E7C
:101DB000B12CC12CD12CD601C5018E199F09A00BC5
:101DC000B10B7C018D01E21AF10801091109659638
:101DD000ECAEFDAE0EAF1FAF6597E114F104010547
:101DE000110539F464015301A218B308C408D508D9
:101DF000ECC06296FFAC6297E496FFAEE4970F2CBE
:101E000004C0220C331C441C551C0A94D2F78A2DA2
:101E10008F1964015301082E04C0D694C794B79457
:101E2000A7940A94D2F7A401930104C0220F331F90
:101E3000441F551FFA94D2F7E8966CAC7DAC8EAC7B
:101E40009FACE89704C096948794779467948A959A
:101E5000D2F784017301E22AF32A042B152B299669
:101E6000ECAEFDAE0EAF1FAF299732018824992446
:101E700092018101207030706D960CAF1DAF2EAFB6
:101E80003FAF6D97C601B501A40193010E940A1BE3
:101E90007B018C01C601B501A40193010E940A1BBC
:101EA000CA01B9016D962CAD3DAD4EAD5FAD6D97DC
:101EB0000E94EB1A9B01AC018701FF24EE242996B6
:101EC000ACACBDACCEACDFAC2997C601AA27BB2712
:101ED0005C016D01AE28BF28C02AD12AA216B30624
:101EE000C406D50690F4A20CB31CC41CD51CA214C5
:101EF000B304C404D50448F0A216B306C406D5063C
:101F000020F4A20CB31CC41CD51CA21AB30AC40A28
:101F1000D50AC601B501A40193010E940A1B7B01E9
:101F20008C01C601B501A40193010E940A1BCA01DC
:101F3000B9016D962CAD3DAD4EAD5FAD6D970E9474
:101F4000EB1A9B01AC018701FF24EE2429968CAD8E
:101F50009DADAEADBFAD2997A070B07057016801BF
:101F6000A82AB92ACA2ADB2AA216B306C406D506AD
:101F700090F4A20CB31CC41CD51CA214B304C4045A
:101F8000D50448F0A216B306C406D50620F4A20C68
:101F9000B31CC41CD51CE896ECACFDAC0EAD1FAD5B
:101FA000E897E4960FACE49704C0EE0CFF1C001F0A
:101FB000111F0A94D2F72D96ECAEFDAE0EAF1FAFF7
:101FC0002D97A21AB30AC40AD50A3201882499248B
:101FD0009201810120703070A1960CAF1DAF2EAF21
:101FE0003FAFA197C601B501A40193010E940A1B4E
:101FF0007B018C01C601B501A40193010E940A1B5B
:10200000CA01B901A1962CAD3DAD4EAD5FADA19712
:102010000E94EB1A9B01AC018701FF24EE242D9650
:10202000ACACBDACCEACDFAC2D97C601AA27BB27AC
:1020300057016801A82AB92ACA2ADB2AA216B306C0
:10204000C406D50690F4A20CB31CC41CD51CA21463
:10205000B304C404D50448F0A216B306C406D506DA
:1020600020F4A20CB31CC41CD51CA21AB30AC40AC7
:10207000D50AC601B501A40193010E940A1B7B0188
:102080008C01C601B501A40193010E940A1BCA017B
:10209000B901A1962CAD3DAD4EAD5FADA1970E94AB
:1020A000EB1A9B01AC018701FF24EE242D968CAD29
:1020B0009DADAEADBFAD2D97A070B070E82AF92AE6
:1020C0000A2B1B2BE216F3060407150790F4E20C0B
:1020D000F31C041D151DE214F3040405150548F056
:1020E000E216F3060407150720F4E20CF31C041DA6
:1020F000151DE21AF30A040B150BD801C7016296ED
:102100000FAC629704C0B695A795979587950A94EA
:10211000D2F789A79AA7ABA7BCA71DA61EA61FA684
:1021200018AA898B8AA58A8B8BA58B8B8CA58C8B07
:102130008DA58D8B2FC36A147B048C049D0448F4F9
:10214000498B5A8B6B8B7C8B8D8B9E8B2F8B388F17
:1021500027C300E0A01600E0B00601E0C00600E0E2
:10216000D00688F41FEFA116B104C104D10439F0E0
:1021700030F028E0E22EF12C012D112D18C0EE24B4
:10218000FF24870114C020E0A21620E0B20620E060
:10219000C20621E0D20630F098E1E92EF12C012DA3
:1021A000112D05C080E1E82EF12C012D112DD60155
:1021B000C5010E2C04C0B695A795979587950A94EE
:1021C000D2F78F579E4FDC012C9180E290E0A0E087
:1021D000B0E08E199F09A00BB10B821B9109A109D8
:1021E000B1090097A105B10509F059C0A614B704BB
:1021F000C804D90470F0E896ECACFDAC0EAD1FAD90
:10220000E897E214F3040405150518F4D801C70192
:102210002FC0E8968CAD9DADAEADBFADE8978219ED
:102220009309A409B509A40193012A193B094C0992
:102230005D09AA24BB246501E8966CAC7DAC8EAC2C
:102240009FACE897681679068A069B0628F411E089
:10225000A12EB12CC12CD12C79018A01EA18FB08DE
:102260000C091D096196ECAEFDAE0EAF1FAF619774
:1022700089A79AA7ABA7BCA761960CAD1DAD2EADE3
:102280003FAD61970DA71EA72FA738AB898B8AA5F5
:102290008A8B8BA58B8B8CA58C8B0D8B7BC2E3964D
:1022A0008FAFE397A6019501082E04C0220F331FBC
:1022B000441F551F0A94D2F710E2181BE2961FAF75
:1022C000E297D201C101012E04C0B695A79597955A
:1022D00087950A94D2F75C016D01A22AB32AC42A19
:1022E000D52A2596ACAEBDAECEAEDFAE2597720137
:1022F0006101E3960FACE39704C0CC0CDD1CEE1C2F
:10230000FF1C0A94D2F72196CCAEDDAEEEAEFFAE46
:10231000219764015301012E04C0D694C794B79449
:10232000A7940A94D2F7A4019301E3960FACE39724
:1023300004C0220F331F441F551F0A94D2F7E8969A
:102340008CAD9DADAEADBFADE89704C0B695A79579
:10235000979587951A95D2F77C018D01E22AF32A89
:10236000042B152BE9AEFAAE0BAF1CAFE8960CAD03
:102370001DAD2EAD3FADE897E3960FACE39704C0DB
:10238000000F111F221F331F0A94D2F70DAB1EAB93
:102390002FAB38AF25962CAD3DAD4EAD5FAD25973B
:1023A0003A018824992440705070A5962CAF3DAF17
:1023B0004EAF5FAFA597C601B501A40193010E947E
:1023C0000A1B7B018C01C601B501A40193010E9487
:1023D0000A1BC901DA011C012D01C201B101A59638
:1023E0002CAD3DAD4EAD5FADA5970E94EB1A9B01A4
:1023F000AC018701FF24EE24A9ACBAACCBACDCACB9
:10240000C601AA27BB2757016801A82AB92ACA2AE8
:10241000DB2AA216B306C406D50610F508942108D7
:102420003108410851082596ECACFDAC0EAD1FAD4E
:102430002597AE0CBF1CC01ED11EAE14BF04C00633
:10244000D10670F0A216B306C406D50648F4089467
:102450002108310841085108AE0CBF1CC01ED11E16
:10246000A21AB30AC40AD50AC601B501A401930190
:102470000E940A1B7B018C01C601B501A4019301D6
:102480000E940A1BC901DA013C014D01C401B301DC
:10249000A5962CAD3DAD4EAD5FADA5970E94EB1A54
:1024A0009B01AC018701FF24EE2489AD9AADABAD51
:1024B000BCADA070B07057016801A82AB92ACA2A19
:1024C000DB2AA216B306C406D50610F508946108E7
:1024D00071088108910825966CAD7DAD8EAD9FADDC
:1024E0002597A60EB71EC81ED91EA616B706C80683
:1024F000D90670F0A216B306C406D50648F40894AF
:102500006108710881089108A60EB71EC81ED91E61
:10251000D601C501821B930BA40BB50B89AB9AABFB
:10252000ABABBCABD1019927882784017301E82AA2
:10253000F92A0A2B1B2B8FEFA82E8FEFB82EC12C58
:10254000D12CAE20BF20C022D12278010027112734
:1025500021966CAC7DAC8EAC9FAC21972FEF3FEFFA
:1025600040E050E0622273228422952221966CADD5
:102570007DAD8EAD9FAD2197AC0166277727AD96D7
:102580004CAF5DAF6EAF7FAFAD97C601B501A40193
:1025900093010E94EB1AA9966CAF7DAF8EAF9FAFEF
:1025A000A997C601B501AD962CAD3DAD4EAD5FAD61
:1025B000AD970E94EB1A1B012C01C801B701A401C1
:1025C00093010E94EB1A5B016C01C801B701AD9643
:1025D0002CAD3DAD4EAD5FADAD970E94EB1A7B01CA
:1025E0008C01A6019501220D331D441D551DA99690
:1025F0006CAC7DAC8EAC9FACA997C401AA27BB275D
:10260000280F391F4A1F5B1F2A153B054C055D0526
:1026100048F4812C912CE1E0AE2EB12CE80CF91C91
:102620000A1D1B1DCA01AA27BB2757016801A80E56
:10263000B91ECA1EDB1EA90133272227A9968CAD1D
:102640009DADAEADBFADA997A070B070280F391F7A
:102650004A1F5B1FE9A8FAA80BA91CA9EA14FB04EE
:102660000C051D0570F0AE14BF04C006D10689F537
:102670006DA97EA98FA998AD621773078407950786
:1026800040F5DA01C90121966CAC7DAC8EAC9FACF3
:10269000219786199709A809B9092596ECACFDACD4
:1026A0000EAD1FAD2597AE18BF08C00AD10AEE24A3
:1026B000FF248701281739074A075B0728F421E020
:1026C000E22EF12C012D112DAE18BF08C00AD10A3F
:1026D00002C0DA01C9016DA87EA88FA898AC681A5B
:1026E000790A8A0A9B0A09A91AA92BA93CA90A19DD
:1026F0001B092C093D0958016901222433242101B9
:102700002DA93EA94FA958AD2615370548055905ED
:1027100028F481E0282E312C412C512C86017501A2
:10272000E218F30804091509A8019701E2960FAC15
:10273000E29704C0220F331F441F551F0A94D2F79B
:10274000D401C301E3960FACE39704C0B695A795F7
:10275000979587950A94D2F7282B392B4A2B5B2B18
:1027600029A73AA74BA75CA7E3960FACE39704C051
:1027700016950795F794E7940A94D2F7EDA6FEA66E
:102780000FA718AB298B8AA58A8B8BA58B8B8CA561
:102790008C8BED8A8EA58E8B8FA58F8B88A9888FC9
:1027A000E1964CAD5DAD6EAD7FADE1974115510544
:1027B0006105710509F467C089892A893B894C89BB
:1027C0005D89AE89BF89188DF82FF19591E01F16AC
:1027D00008F090E0822F819521E0181608F020E0A3
:1027E000E82FE91B91E08E1708F090E0292B832F4A
:1027F000819531E0181608F030E0782F721B91E0D7
:10280000871708F090E0392B842F819521E0181666
:1028100008F020E0682F631B91E0861708F090E035
:10282000292B852F819531E0181608F030E0582FBC
:10283000521B91E0851708F090E0392B8A2F819583
:1028400021E0181608F020E0482F431B91E0841780
:1028500008F090E0292B8B2F819591E0181608F055
:1028600090E0382F321B21E0831708F020E0922BF4
:10287000812F8195891BF98BEA8B7B8B6C8B5D8B10
:102880004E8B3F8B888F29893A894B895C896D896A
:102890007E898F89988DC958DF4FE2E10C94481BDF
:1028A000A0E0B0E0E6E5F4E10C942C1BDC012B0188
:1028B000FA019C91923008F439C1EB018881823091
:1028C00008F433C1943069F4843009F02FC11196B3
:1028D0009C9111978981981709F428C1A9E7B1E063
:1028E00025C1843009F421C18230A9F4923009F065
:1028F0001DC19A01AD0188E0EA010990AE01E9012C
:1029000009929E018150C1F7E201898111969C9143
:102910008923818308C1923009F407C112962D9052
:102920003C901397EB018A819B811496AD90BD90EA
:10293000CD90DC901797EC80FD800E811F81910176
:10294000281B390BB90137FF04C066277727621BA4
:10295000730B603271050CF061C0121613066CF532
:1029600037014801062E04C09694879477946794A3
:102970000A94D2F721E030E040E050E004C0220F9A
:10298000331F441F551F6A95D2F7215030404040F5
:1029900050402E213F21402351232115310541056F
:1029A000510521F021E030E040E050E079018A015A
:1029B000E628F728082919293CC0232BD1F1260E37
:1029C000371E35014601062E04C0969487947794ED
:1029D00067940A94D2F721E030E040E050E004C070
:1029E000220F331F441F551F6A95D2F721503040E4
:1029F000404050402A213B214C215D2121153105C9
:102A00004105510521F021E030E040E050E059015E
:102A10006A01A628B728C828D9280BC082159305B3
:102A20002CF01C01AA24BB24650103C0EE24FF2462
:102A3000870111969C91D20111968C91981709F4F7
:102A400045C0992339F0A80197012A193B094C097F
:102A50005D0906C0A60195012E193F09400B510BD7
:102A600057FD08C011823382228224833583468336
:102A700057831DC081E08183338222828827992772
:102A8000DC01821B930BA40BB50B84839583A68377
:102A9000B7830DC0220F331F441F551F2483358376
:102AA0004683578382819381019793838283248114
:102AB000358146815781DA01C9010197A109B10920
:102AC0008F5F9F4FAF4FBF4328F30BC0918333827B
:102AD0002282EA0CFB1C0C1D1D1DE482F58206837C
:102AE000178383E08083248135814681578157FF96
:102AF0001AC0C901AA2797FDA095BA2F81709070BE
:102B0000A070B0705695479537952795822B932BDB
:102B1000A42BB52B84839583A683B783828193816D
:102B2000019693838283DF0101C0D201CD01CDB72D
:102B3000DEB7E2E10C94481BA0E2B0E0E2EAF5E186
:102B40000C94381B69837A838B839C832D833E830B
:102B50004F835887E9E0EE2EF12CEC0EFD1ECE01DE
:102B60000196B7010E94061A8E010F5E1F4FCE011B
:102B70000596B8010E94061A8A8991E089278A8BF6
:102B8000C701B801AE01475E5F4F0E9450140E941A
:102B90003119A096E6E00C94541BA0E2B0E0E3EDFE
:102BA000F5E10C94381B69837A838B839C832D8396
:102BB0003E834F835887F9E0EF2EF12CEC0EFD1E7B
:102BC000CE010196B7010E94061A8E010F5E1F4FBB
:102BD000CE010596B8010E94061AC701B801AE01E0
:102BE000475E5F4F0E9450140E943119A096E6E0A4
:102BF0000C94541BA0E2B0E0E0E0F6E10C942C1B36
:102C000069837A838B839C832D833E834F8358878C
:102C1000CE010196BE01675F7F4F0E94061ACE016A
:102C20000596BE016F5E7F4F0E94061A998592300D
:102C300088F089898230C8F0943019F4823051F4D8
:102C400004C0843029F4923081F489E791E0C6C051
:102C5000923049F420E09A858A89981321E02A87E6
:102C6000CE010996BBC0823049F420E09A858A895A
:102C7000981321E02A8BCE014196B0C02D843E846A
:102C80004F8458886D887E888F88988CEE24FF2426
:102C90008701AA24BB24650140E050E060E070E0B9
:102CA000E0E0F0E0C10181709070892BE9F0E60C62
:102CB000F71C081D191D9A01AB012A0D3B1D4C1D67
:102CC0005D1D80E090E0A0E0B0E0E614F7040805A8
:102CD000190520F481E090E0A0E0B0E0BA01A9017C
:102CE000480F591F6A1F7B1FAA0CBB1CCC1CDD1C84
:102CF00097FE08C081E090E0A0E0B0E0A82AB92AE1
:102D0000CA2ADB2A3196E032F10549F0660C771CBD
:102D1000881C991C5694479437942794C3CFFA85FE
:102D2000EA892B893C898B859C85280F391F2E5F6A
:102D30003F4F17C0CA0181709070892B61F01695C2
:102D40000795F794E79480E090E0A0E0B0E8E82AE7
:102D5000F92A0A2B1B2B76956795579547952F5F78
:102D60003F4F77FDE7CF0CC0440F551F661F771FFD
:102D700017FD4160EE0CFF1C001F111F2150304059
:102D8000403090E0590790E0690790E4790760F3DC
:102D90002B8F3C8FDB01CA018F779070A070B070D1
:102DA00080349105A105B10561F447FD0AC0E11425
:102DB000F1040105110529F0405C5F4F6F4F7F4F13
:102DC00040781A8EFE1711F081E08A8F4D8F5E8F4A
:102DD0006F8F78A383E0898FCE0149960E943119C5
:102DE000A096E2E10C94481BA8E1B0E0EAEFF6E11E
:102DF0000C94341B69837A838B839C832D833E835D
:102E00004F835887B9E0EB2EF12CEC0EFD1ECE015E
:102E10000196B7010E94061A8E010F5E1F4FCE0168
:102E20000596B8010E94061A2985223008F47EC052
:102E30003989323010F4B8017CC08A859A89892793
:102E40008A87243011F0223031F4231709F06EC044
:102E500069E771E06EC0343039F41D861E861F8626
:102E6000188A1C861B8604C0323021F484E08987CE
:102E7000B7015FC02B853C858B899C89281B390B4A
:102E80003C872B87ED84FE840F851889AD88BE882A
:102E9000CF88D88CEA14FB040C051D0540F4EE0C19
:102EA000FF1C001F111F215030403C872B8720E062
:102EB00030E040E050E080E090E0A0E0B0E460E08E
:102EC00070E0EA14FB040C051D0540F0282B392B9B
:102ED0004A2B5B2BEA18FB080C091D09B695A79530
:102EE00097958795EE0CFF1C001F111F6F5F7F4F9A
:102EF0006F31710531F7DA01C9018F779070A070D9
:102F0000B07080349105A105B10561F427FD0AC0B8
:102F1000E114F1040105110529F0205C3F4F4F4FEA
:102F20005F4F20782D873E874F87588BBE01675FA4
:102F30007F4FCB010E9431196896EAE00C94501B38
:102F4000A8E1B0E0E6EAF7E10C94381B69837A83E4
:102F50008B839C832D833E834F83588789E0E82EA3
:102F6000F12CEC0EFD1ECE010196B7010E94061A4F
:102F70008E010F5E1F4FCE010596B8010E94061A02
:102F80008985823040F08989823028F0C701B801F4
:102F90000E947E1A01C08FEF6896E6E00C94541BE5
:102FA000A8E1B0E0E6EDF7E10C94381B69837A8381
:102FB0008B839C832D833E834F83588789E0E82E43
:102FC000F12CEC0EFD1ECE010196B7010E94061AEF
:102FD0008E010F5E1F4FCE010596B8010E94061AA2
:102FE0008985823040F08989823028F0C701B80194
:102FF0000E947E1A01C08FEF6896E6E00C94541B85
:10300000A8E1B0E0E6E0F8E10C94381B69837A832C
:103010008B839C832D833E834F83588789E0E82EE2
:10302000F12CEC0EFD1ECE010196B7010E94061A8E
:103030008E010F5E1F4FCE010596B8010E94061A41
:103040008985823040F08989823028F0C701B80133
:103050000E947E1A01C081E06896E6E00C94541B41
:10306000A8E0B0E0E6E3F8E10C94351B9B01AC016D
:1030700083E08983DA01C9018827B7FD8395992701
:10308000AA27BB27B82E211531054105510519F492
:1030900082E089833AC08823A9F0203080E0380795
:1030A00080E0480780E8580729F460E070E080E09D
:1030B0009FEC30C0EE24FF248701E21AF30A040BD0
:1030C000150B02C079018A018EE1C82ED12CDC8259
:1030D000CB82ED82FE820F831887C801B7010E9460
:1030E000E21801971816190684F4082E04C0EE0C95
:1030F000FF1C001F111F0A94D2F7ED82FE820F837E
:103100001887C81AD90ADC82CB82BA82CE0101960E
:103110000E9431192896E9E00C94511BACE0B0E014
:10312000E4E9F8E10C943C1B69837A838B839C83EC
:10313000CE010196BE016B5F7F4F0E94061A8D8102
:10314000823061F1823050F1843021F48E81882305
:1031500051F12EC02F81388537FD20C06E812F316F
:1031600031051CF06623F9F023C08EE190E0821B4C
:10317000930B29853A854B855C8504C05695479508
:10318000379527958A95D2F76623B1F050954095EB
:10319000309521953F4F4F4F5F4F0EC020E030E0FC
:1031A00040E050E009C02FEF3FEF4FEF5FE704C072
:1031B00020E030E040E050E8B901CA012C96E2E09E
:1031C0000C94581BEF92FF920F931F937B018C017D
:1031D00080E0E81680E0F80681E0080780E0180744
:1031E00088F48FEFE816F1040105110531F028F09D
:1031F00088E090E0A0E0B0E017C080E090E0A0E0C0
:10320000B0E012C080E0E81680E0F80680E0080731
:1032100081E0180728F088E190E0A0E0B0E004C069
:1032200080E190E0A0E0B0E020E230E040E050E05B
:10323000281B390B4A0B5B0B04C016950795F794B6
:10324000E7948A95D2F7F701EF57FE4F8081281B4C
:10325000310941095109C9011F910F91FF90EF9068
:103260000895DF92EF92FF920F931F93FC01E48089
:10327000F58006811781D1808081823048F480E01A
:1032800090E0A0E1B0E0E82AF92A0A2B1B2BA5C0A8
:10329000843009F49FC0823021F4EE24FF2487019A
:1032A00005C0E114F1040105110519F4E0E0F0E0B6
:1032B00096C0628173819FEF623879070CF05BC022
:1032C00022E83FEF261B370B2A3131052CF020E096
:1032D00030E040E050E02AC0B801A701022E04C04F
:1032E00076956795579547950A94D2F781E090E0D7
:1032F000A0E0B0E004C0880F991FAA1FBB1F2A9549
:10330000D2F70197A109B1098E219F21A023B123F2
:103310000097A105B10521F081E090E0A0E0B0E0C8
:103320009A01AB01282B392B4A2B5B2BDA01C901FF
:103330008F779070A070B07080349105A105B105B1
:1033400039F427FF09C0205C3F4F4F4F5F4F04C047
:10335000215C3F4F4F4F5F4FE0E0F0E02030A0E0B6
:103360003A07A0E04A07A0E45A0710F0E1E0F0E0D5
:1033700079018A0127C06038710564F5FB01E158C5
:10338000FF4FD801C7018F779070A070B070803464
:103390009105A105B10539F4E7FE0DC080E490E088
:1033A000A0E0B0E004C08FE390E0A0E0B0E0E80E61
:1033B000F91E0A1F1B1F17FF05C016950795F794E6
:1033C000E794319687E016950795F794E7948A95E8
:1033D000D1F705C0EE24FF248701EFEFF0E06E2F58
:1033E000679566276795902F9F77D794DD24D794AC
:1033F0008E2F8695492F462B582F5D29B701CA017C
:103400001F910F91FF90EF90DF900895FC01DB0179
:10341000408151812281622F6F7770E0221F222725
:10342000221F9381892F880F822B282F30E0991F2C
:103430009927991F11969C93119721153105A9F58C
:10344000411551056105710511F482E037C082E82C
:103450009FEF13969C938E9312979A01AB0167E0AE
:10346000220F331F441F551F6A95D1F783E08C93B9
:103470000DC0220F331F441F551F12968D919C9132
:103480001397019713969C938E931297203080E0A8
:10349000380780E0480780E4580758F314962D93C6
:1034A0003D934D935C93179708952F3F310579F421
:1034B000411551056105710519F484E08C93089557
:1034C00064FF03C081E08C9312C01C9210C02F5780
:1034D000304013963C932E93129783E08C9387E0B1
:1034E000440F551F661F771F8A95D1F77064149695
:1034F0004D935D936D937C93179708951F93DC0113
:10350000FB019C91923008F447C08081823008F41E
:1035100043C0943051F411961C91843099F5818107
:10352000682F70E0611B71093FC0843021F0923038
:1035300031F48230B9F18181882389F12DC011964F
:103540001C9111978230F1F081811817D9F41296ED
:103550002D913C911397828193818217930794F068
:1035600028173907BCF014968D919D910D90BC9150
:10357000A02D2481358146815781281739074A07B4
:103580005B0718F4112341F00AC082179307A407C0
:10359000B50740F4112319F061E070E005C06FEF4A
:1035A0007FEF02C060E070E0CB011F910895AA1B7D
:1035B000BB1B51E107C0AA1FBB1FA617B70710F01E
:1035C000A61BB70B881F991F5A95A9F78095909550
:1035D000BC01CD010895629FD001739FF001829FCD
:1035E000E00DF11D649FE00DF11D929FF00D839F92
:1035F000F00D749FF00D659FF00D9927729FB00D2F
:10360000E11DF91F639FB00DE11DF91FBD01CF0141
:1036100011240895A1E21A2EAA1BBB1BFD010DC0A7
:10362000AA1FBB1FEE1FFF1FA217B307E407F50772
:1036300020F0A21BB30BE40BF50B661F771F881F4E
:10364000991F1A9469F760957095809590959B01E4
:10365000AC01BD01CF0108952F923F924F925F922E
:103660006F927F928F929F92AF92BF92CF92DF9292
:10367000EF92FF920F931F93CF93DF93CDB7DEB7F7
:10368000CA1BDB0B0FB6F894DEBF0FBECDBF09948B
:103690002A88398848885F846E847D848C849B84E2
:1036A000AA84B984C884DF80EE80FD800C811B81F0
:1036B000AA81B981CE0FD11D0FB6F894DEBF0FBE1F
:0A36C000CDBFED010895F894FFCF8F
:1036CA00457468616E0031383539343139004D61DD
:1036DA0078482D522F530031383733313338004A66
:1036EA00757374696E0031373038393133004C6183
:1036FA007572656E003138353631373900526F7858
:10370A00792D532F480031383637323032004B6921
:10371A006F6E61003138353736363000416E64726B
:10372A0065770031383637303136003B303030007B
:10373A00313F00F401010001000000000000000018
:10374A000000010202030303030404040404040442
:10375A000405050505050505050505050505050510
:10376A0005060606060606060606060606060606F0
:10377A0006060606060606060606060606060606DF
:10378A0006070707070707070707070707070707C0
:10379A0007070707070707070707070707070707AF
:1037AA00070707070707070707070707070707079F
:1037BA00070707070707070707070707070707078F
:1037CA000708080808080808080808080808080870
:1037DA00080808080808080808080808080808085F
:1037EA00080808080808080808080808080808084F
:1037FA00080808080808080808080808080808083F
:10380A00080808080808080808080808080808082E
:10381A00080808080808080808080808080808081E
:10382A00080808080808080808080808080808080E
:10383A0008080808080808080808080808080808FE
:02384A00080074
:00000001FF
